:1000000072C00000A1C000009FC000009DC00000A1
:100010009BC0000099C0000097C0000095C0000080
:1000200093C0000091C000008FC000008DC0000090
:100030008BC0000089C0000087C0000085C00000A0
:1000400083C0000081C000007FC000007DC00000B0
:100050007BC0000079C0000077C0000075C00000C0
:1000600073C0000071C000006FC000006DC00000D0
:100070006BC0000069C0000067C0000065C00000E0
:1000800092C6000061C000005FC000005DC00000BB
:100090005BC0000059C0000057C0000055C0000000
:1000A00053C0000051C000004FC000004DC0000010
:1000B0004BC0000049C0000047C0000061C60000FE
:1000C00043C0000041C000003FC000003DC0000030
:1000D0003BC0000039C0000037C0000035C0000040
:1000E00033C000009A0B11241FBECFEFD1E2DEBF58
:1000F000CDBF00E00CBF12E0A0E0B2E0ECE3FFE116
:1001000000E00BBF02C007900D92AA3BB107D9F7E0
:1001100022E0AAEBB2E001C01D92AB3FB207E1F7CB
:1001200010E0C6EED0E000E006C022970109FE0113
:100130000BBF0E94690FC43ED10780E00807A9F7F2
:100140000E941D0A0C949C0F5BCF25B144B181E045
:1001500090E0BC0102C0660F771F2A95E2F79B0171
:10016000242B24B935B124B102C0880F991F3A95C8
:10017000E2F7822B84B984B1806984B908952F9AFB
:1001800085B1806985B908952C9A08952F9885B115
:100190008F7685B908952C98089595ED9A95F1F785
:1001A0000000882314F4A59A01C0A59886FF02C018
:1001B000739A01C0739885FF06C0E2E0F1E0908178
:1001C0009860908305C0E2E0F1E09081977F908392
:1001D00084FF06C0E2E0F1E090819061908305C069
:1001E000E2E0F1E090819F7E9083E2E0F1E0908197
:1001F0009062908390819F7D908383FF02C0A59A37
:1002000001C0A59882FF02C0739A01C0739881FF54
:1002100006C0E2E0F1E090819860908305C0E2E0E2
:10022000F1E09081977F908380FF06C0E2E0F1E0EB
:1002300080818061808305C0E2E0F1E080818F7E73
:100240008083E2E0F1E080818062808380818F7D25
:1002500080830895E2E0F1E080818F7B808381E0FC
:100260009CDF8FE39FE10197F1F700C00000089544
:10027000CF93DF93EC01E2E0F1E080818064808342
:100280008881882329F0219688DF89918111FCCF0C
:10029000DF91CF910895E2E0F1E090819064908346
:1002A0007CCFE2E0F1E090819F7B9083611102C0FE
:1002B000805873CF613011F480546FCF623011F4E5
:1002C0008C566BCF8C5269CFE1E0F1E08081806485
:1002D00080838081806280839D9A6B9A8081886010
:1002E0008083808180618083E2E0F1E080818F7B88
:1002F000808380818F7D80838FE59AEE0197F1F76F
:1003000000C000008081806180838081886080835C
:100310007398A59880818062808380818F7D80839F
:100320008FE19EE40197F1F700C0000080818062B8
:10033000808380818F7D80838FE193E00197F1F747
:1003400000C0000080818062808380818F7D8083F7
:100350008FE193E00197F1F700C0000080818F7E6C
:1003600080838081886080837398A5988081806273
:10037000808380818F7D808388E20FDF8EE00DDFB8
:1003800069DF86E00ACFCF93DF9300D000D0CDB7EE
:10039000DEB7AB01BE016F5F7F4F0E946D0FCE01D4
:1003A000019666DF26960FB6F894DEBF0FBECDBF6E
:1003B000DF91CF9108954F925F926F927F92AF92AB
:1003C000BF92CF92DF92EF92FF920F931F93CF9342
:1003D000DF93CDB7DEB78A89EB88FC88813021F4C2
:1003E00060E080E05EDF11C0823021F461E080E0F7
:1003F00058DF0BC0833021F462E080E052DF05C09B
:10040000843019F463E080E04CDF6E0185E1C80EB2
:10041000D11CF7018081882309F4B2C0853209F02C
:1004200098C087010F5F1F4FF7018181863609F45D
:1004300049C030F4823661F0843609F086C020C0AD
:10044000833751F1883781F08F3609F07EC071C053
:100450007601F2E0EF0EF11C62E070E0F6018081BF
:10046000918191DF670184C07601F2E0EF0EF11C0B
:1004700060E170E0F6018081918185DF670178C0DD
:100480007601F2E0EF0EF11C6AE070E0F601808187
:10049000918179DF67016CC0F60182E0C80ED11C42
:1004A0000190F081E02D8081882309F461C07F01F3
:1004B0009FEFE91AF90AEFDEF70181917F018111BF
:1004C000FACF56C05601F4E0AF0EB11CF6014080E1
:1004D000518062807380C301B2010E940B0E6B01D8
:1004E0007C01882777FD8095982F0E943E0E9B0106
:1004F000AC01C301B2010E943A0D20E030E048ECAB
:1005000052E40E94F20E0E940B0E662E772E6AE0D5
:1005100070E0C60138DF8EE2BEDE862D972D99236E
:100520001CF49195819591096AE070E02CDF6501DA
:100530001FC07601F2E0EF0EF11C68E070E0F601FA
:100540008081918120DF670113C085E2A4DE8701ED
:100550000FC0893021F480E29EDE870109C08A3015
:1005600029F461E080E09DDE870102C094DE87010E
:100570007801FFEFEF1AFF0AF801818181114ECF58
:10058000DF91CF911F910F91FF90EF90DF90CF906F
:10059000BF90AF907F906F905F904F90089587B11C
:1005A000826887B987B1886287B981B18A7A81B94F
:1005B00088B18A6A88B982B1856582B908954198FF
:1005C000439A459A479A8FE59AEE0197F1F700C052
:1005D0000000069961C0319B30C05EC0319B30C0C5
:1005E0005DC0319B30C05CC0319B30C05BC0339B71
:1005F00030C068C0339B30C067C0339B30C066C01A
:10060000339B30C065C0359B30C072C0359B30C055
:1006100071C0359B30C070C0359B30C06FC0379BF8
:1006200030C07CC0379B30C07BC0379B30C07AC0A5
:1006300037997AC020E130E02CC021E030E029C0B9
:1006400024E030E026C027E030E023C02CE030E09A
:1006500020C022E030E01DC025E030E01AC028E0D4
:1006600030E017C020E030E014C023E030E011C0DB
:1006700026E030E00EC029E030E00BC02BE030E097
:1006800008C02DE030E005C02EE030E002C02FE0D1
:1006900030E0822F932F0895049BA0CF029BA1CF1F
:1006A000009BA2CF419A8FE19EE40197F1F700C031
:1006B000000043988FE59AEE0197F1F700C0000023
:1006C000069B95CF049B96CF029B97CF009B98CF1C
:1006D000439A8FE19EE40197F1F700C0000045982E
:1006E0008FE59AEE0197F1F700C00000069B8BCFD3
:1006F000049B8CCF029B8DCF009B8ECF459A8FE1C0
:100700009EE40197F1F700C0000047988FE59AEE4C
:100710000197F1F700C00000069B81CF049B82CFB8
:10072000029B83CF009B84CF479A8FE19EE4019781
:10073000F1F700C000008AE090E090930B028093F4
:100740000A022AE030E0A5CF41984398459847989F
:10075000069B0BC0049B0CC0029B0DC090B181E0B6
:100760008927282F217030E008C021E030E005C043
:1007700021E030E002C021E030E0822F932F089585
:10078000E3DF019751F420910A0230910B022A30E5
:10079000310519F0822F932F089511DF9C0190935A
:1007A0000B0280930A02F6CFEAE7F0E080818068CE
:1007B0008083ACE7B0E08C9180648C938C91807ED8
:1007C0008C9380818660808380818160808380813A
:1007D00080648083808186FDFDCFEAE7F0E0808140
:1007E0008F7780830895ECE7F0E090818770987FA1
:1007F000982B9083EAE7F0E08081806C8083808191
:1008000086FDFDCF2091780030917900822F932FC3
:100810000895CADFC4DE58DD1DDD8BEB92E08FD773
:1008200060EA7FE08CEB92E00E944C0C8AEB92E055
:100830008CDC65E070E080EC92E00E94B40C80EC0F
:1008400092E00E94E00C63E070E08EEB92E00E9488
:10085000B40C8EEB92E00C94E00C1F93CF93DF93DB
:1008600060E083E01EDD8091D2028F938091D102FF
:100870008F938091D0028F938091CF028F93CCE998
:10088000D2E0DF93CF9315E01F9395DD60E08DE01C
:1008900008DD8091CE028F938091CD028F9380915D
:1008A000CC028F938091CB028F93DF93CF931F93D2
:1008B00082DD8091F9029091FA022DB73EB7225F56
:1008C0003F4F0FB6F8943EBF0FBE2DBF892B09F0E6
:1008D000E0C08091060290910702892B09F0D9C0EF
:1008E0008091080290910902892B09F4C7C0D1C0F8
:1008F00080910602909107020A970CF0D1C0809176
:100900000802909109020A970CF4D2C0C9C08091E4
:100910000602909107020A970CF4ECC00EC1809178
:100920000802909109020A970CF40FC130C180911E
:100930000802909109020A970CF431C153C1409109
:10094000080250910902209106023091070280911D
:10095000F9029091FA025F934F933F932F939F93E5
:100960008F938CE292E09F938F9383E08F9323DDAC
:100970008DB79EB709960FB6F8949EBF0FBE8DBF78
:1009800073C080910802909109020A971CF540916A
:1009900008025091090220910602309107028091CD
:1009A000F9029091FA025F934F933F932F939F9395
:1009B0008F9387E392E09F938F9383E08F93FBDC89
:1009C0002DB73EB7275F3F4F0FB6F8943EBF0FBE1F
:1009D0002DBF4AC08091F9029091FA020A9714F54E
:1009E00040910802509109022091060230910702BD
:1009F0008091F9029091FA025F934F933F932F9366
:100A00009F938F938CE092E09F938F9383E08F93DB
:100A1000D2DC8DB79EB709960FB6F8949EBF0FBE75
:100A20008DBF22C040910802509109022091060218
:100A3000309107028091F9029091FA025F934F93EF
:100A40003F932F939F938F938DE092E09F938F938B
:100A500083E08F93B0DC2DB73EB7275F3F4F0FB6D3
:100A6000F8943EBF0FBE2DBF8091E802882309F4A1
:100A7000C1C064E08091E90214DCBCC086E192E070
:100A80009F938F9383E08F9396DC0F900F900F903E
:100A9000EBCF8091F9029091FA020A970CF428CFDB
:100AA0008091F9029091FA020A970CF430CF45C078
:100AB00040910802509109022091060230910702EC
:100AC0008091F9029091FA025F934F933F932F9395
:100AD0009F938F938FE192E09F938F9383E08F9307
:100AE0006ADC8DB79EB709960FB6F8949EBF0FBE0D
:100AF0008DBFBACF409108025091090220910602A1
:100B0000309107028091F9029091FA025F934F931E
:100B10003F932F939F938F938BE292E09F938F93BA
:100B200083E08F9348DC2DB73EB7275F3F4F0FB66A
:100B3000F8943EBF0FBE2DBF97CF8091F9029091E0
:100B4000FA020A970CF4EBCE22C0409108025091B1
:100B5000090220910602309107028091F9029091DA
:100B6000FA025F934F933F932F939F938F9386E364
:100B700092E09F938F9383E08F931DDC8DB79EB798
:100B800009960FB6F8949EBF0FBE8DBF6DCF8091B2
:100B90000602909107020A970CF4C9CE23C0409137
:100BA00008025091090220910602309107028091BB
:100BB000F9029091FA025F934F933F932F939F9383
:100BC0008F9380E292E09F938F9383E08F93F3DB88
:100BD0002DB73EB7275F3F4F0FB6F8943EBF0FBE0D
:100BE0002DBF42CF80910602909107020A970CF028
:100BF000C8CEA5CEDF91CF911F9108952091EB0231
:100C00003091EC02EDEEF2E0D901AA0FBB1FAE0F5E
:100C1000BF1F8D939C932F5F3F4F3093EC02209327
:100C2000EB0280819181880F991F9C01220F331F55
:100C3000220F331F820F931F2091EF023091F00299
:100C4000820F931F9093FA028093F9029093FA0215
:100C50008093F9028091F9029091FA02992334F07D
:100C60008091F9029091FA02489754F01092EC02A8
:100C70001092EB028FEF9FEF9093EA028093E902CC
:100C8000E1EFF2E080819181880F991F9C01220F92
:100C9000331F220F331F820F931F2091F3023091D5
:100CA000F402820F931F90930702809306028091B3
:100CB000060290910702CC9734F48091060290913D
:100CC0000702992334F482E090E09093EC02809341
:100CD000EB02E5EFF2E080819181880F991F9C0182
:100CE000220F331F220F331F820F931F2091F70211
:100CF0003091F802820F931F9093090280930802AB
:100D00008091080290910902CC9734F480910802F6
:100D10009091090299233CF484E090E09093EC02D6
:100D20008093EB0211C08091EB029091EC02823033
:100D3000910539F483E090E09093EA028093E90210
:100D400008958430910539F486E090E09093EA02AA
:100D50008093E90208952091E9023091EA022F5F21
:100D60003F4F3093EA022093E902069741F4109234
:100D7000EC021092EB021092EA021092E90208953E
:100D80001F920F920FB60F9211248F93109225018C
:100D90001092240181E08093DF028F910F900FBEAB
:100DA0000F901F9018951F920F920FB60F9211245B
:100DB0008F93109295001092940081E08093C80266
:100DC0008F910F900FBE0F901F901895CF93809129
:100DD000060184FD0DC18091DD02811109C10BC1A5
:100DE00041E050E069E070E08BEB92E0BDD407C0D9
:100DF00040E050E069E070E08BEB92E0B5D481E038
:100E00008093DD027F9920C18091E40281111CC191
:100E10000BC181E08093E50262E370E08CEB92E02D
:100E200040D581E08093E40202C01092E4028091F8
:100E3000060180FD1FC18091E30281111BC107C122
:100E40001092E3027D992BC18091E202811127C1AA
:100E500016C18AEB92E093D98AEB92E095D98CE3A4
:100E600090E09093020280930102C1E0C0930002DF
:100E700068EE73E08EEB92E0CBD5C093E602C093B0
:100E8000E70262E370E08CEB92E00BD5C093E502E1
:100E90001092E80268EE73E080EC92E0B9D541E090
:100EA00050E066E070E08BEB92E05ED441E050E011
:100EB0006CE070E08BEB92E057D441E050E06BE0E7
:100EC00070E08BEB92E050D481E08093E20202C0AC
:100ED0001092E2028091E702811135C08091E60212
:100EE000882389F18CEB92E0E6D41092E60280EC44
:100EF00092E03ED540E050E066E070E08BEB92E09F
:100F000033D440E050E06CE070E08BEB92E02CD406
:100F100040E050E06BE070E08BEB92E025D48CE396
:100F200090E0909302028093010281E0809300029E
:100F30008EEB92E01DD51092E5028AEB92E026D965
:100F40008AEB92E028D97E99EBC08091E102811171
:100F5000E7C0A8C01092E1028091060181FDF7C0B0
:100F60008091E0028111F3C0DEC01092DC02C1E08A
:100F7000C093DB02C093E602C093E70262E370E035
:100F80008CEB92E08ED4C093E5021092E80268EEFA
:100F900073E080EC92E03CD541E050E066E070E028
:100FA0008BEB92E0E1D341E050E06CE070E08BEB42
:100FB00092E0DAD341E050E06BE070E08BEB92E03E
:100FC000D3D38AEB92E0DBD88AEB92E0DDD88CE3D6
:100FD00090E09093020280930102C093000268EEB9
:100FE00073E08EEB92E014D5B6C01092E002B3C06D
:100FF0001092DD0207CF9091DE0281E08927809375
:10100000DE021F928F9381E492E09F938F9384E09E
:101010008F93D1D90F900F900F900F900F908091D8
:10102000DE028111DDCEE4CE8BE492E09F938F93BC
:1010300084E08F93C0D90F900F900F90809105029C
:10104000882309F4EECEE5CE7F9BF1CEEECE87E588
:1010500092E09F938F9384E08F93ADD91092E50235
:101060008CEB92E028D481E08093E3020F900F9004
:101070000F90E8CE8091060180FDE2CEE3CE82E6BD
:1010800092E09F938F9384E08F9395D90F900F9068
:101090000F9080910502882309F416CFDACE7D994E
:1010A00017CF18CF82E792E09F938F9384E08F93BE
:1010B00082D91092E6021092E5028CEB92E0FBD30B
:1010C00080EC92E055D4C1E0C093E10240E050E0F2
:1010D00066E070E08BEB92E047D340E050E06CE0DC
:1010E00070E08BEB92E040D340E050E06BE070E0CA
:1010F0008BEB92E039D38AEB92E048D88AEB92E00E
:101100004AD88CE390E09093020280930102C0934E
:1011100000028EEB92E02CD40F900F900F901CCF1A
:101120007E9918CF19CF81E892E09F938F9384E046
:101130008F9341D981E08093E0028093DC020F908D
:101140000F900F9080910502882329F00ECF809197
:10115000060181FF4ACFCF9108958091DF02882355
:1011600009F449C01092DF028091080290910902AF
:101170000197909309028093080280910802909150
:1011800009029923C4F58091060290910702019704
:1011900090930702809306028BE390E090930902FC
:1011A00080930802809106029091070299231CF512
:1011B0008091F9029091FA0201979093FA0280933C
:1011C000F9028BE390E090930702809306028091EE
:1011D000F9029091FA02992374F410920902109284
:1011E000080210920702109206021092FA02109260
:1011F000F9021092E7020895CF92DF92EF92FF92E8
:101200000F931F93CF93DF936B017C0160910302D7
:1012100070910402882777FD8095982F2FD5A7011C
:10122000960128D420E030E040E05FE3DBD59B016D
:10123000AC0160E070E080E291E41CD4C62ED72EB1
:10124000E82EF92E062F172FD82FC92F20E030E0D7
:1012500040E251E4C3D5181664F020E030E040E0ED
:1012600050E46C2D7D2D8E2D9F2D69D4882334F074
:1012700009C000E010E0D0E2C1E404C000E010E0EA
:10128000D0E0C0E4602F712F8D2F9C2FDF91CF9184
:101290001F910F91FF90EF90DF90CF900895849A67
:1012A0008C988FE19EE40197F1F700C000008C9AC2
:1012B0000895849886E590E006C025E02A95F1F728
:1012C0000000019751F07C99F8CF07C025E02A95DE
:1012D000F1F70000019719F40CC086E590E07C9BC3
:1012E000F5CF07C025E02A95F1F70000019719F422
:1012F000089586E590E07C99F5CF089528E030E0E8
:1013000007C045E04A95F1F70000019719F429C09C
:1013100088E390E07C9BF5CF80EA8A95F1F77C9B8F
:1013200009C08091C70290E0880F991F8160809367
:10133000C7020DC08091C702880F8093C70207C003
:1013400045E04A95F1F70000019719F40CC08EE2D0
:1013500090E07C99F5CF21503109D1F68091C702F8
:10136000089580E0089580E00895CF92DF92EF9293
:10137000FF920F931F93CF93DF937C01EB018FDFDD
:1013800098DFBCDF8093C602B9DF8093C502B6DF69
:101390008093C402B3DF8093C302B0DF8093C202A4
:1013A0002091C30230E04091C40250E0D42ECC24FE
:1013B000C22AD32AE091C502F0E0A091C602B0E0B3
:1013C0001A2F00270E2B1F2BEA0FFB1F4E0F5F1F3C
:1013D000240F351F90E02817390759F087E892E06D
:1013E0009F938F9384E08F930E94DB010F900F9067
:1013F0000F90B60180E090E03FD420E030E040E282
:1014000051E4A1D3F7016083718382839383B80190
:1014100080E090E031D420E030E040E251E493D32A
:10142000688379838A839B83DF91CF911F910F918A
:10143000FF90EF90DF90CF9008957894EAD9809153
:10144000CE028F938091CD028F938091CC028F93A7
:101450008091CB028F938091D2028F938091D102A1
:101460008F938091D0028F938091CF028F9380E9E8
:1014700092E09F938F9381E08F930E94DB01809194
:10148000DA028F938091D9028F938091D8028F9343
:101490008091D7028F9386EA92E09F938F9382E0A8
:1014A0008F930E94DB0186E192E09F938F9383E00C
:1014B0008F930E94DB018DB79EB745960FB6F894C7
:1014C0009EBF0FBE8DBFC0EAD2E06894DD24D1F884
:1014D0000F2EFCE3EF2EF12CF02D0DEA12E06894B4
:1014E000CC24C2F88091DF02882351F167ED72E0CD
:1014F00083ED92E03ADF8091DA028F938091D902F6
:101500008F938091D8028F938091D7028F9380918F
:10151000D6028F938091D5028F938091D4028F93BE
:101520008091D3028F93DF93CF93DF920E94DB01F0
:101530008DB79EB70B960FB6F8949EBF0FBE8DBFAA
:1015400045DC80E050D95C0181E04DD9BC018827A1
:1015500077FD8095982F92D320E030E040E85AE361
:1015600041D420E030E040EA50E43CD420E030E0D8
:1015700048EC52E437D46093CF027093D00280934A
:10158000D1029093D2028091E602811104C0809131
:10159000E5028823A1F0B501882777FD8095982F73
:1015A0006DD320E030E040E85AE31CD420E030E086
:1015B00048EC52E417D42FD38CEB92E07AD183E03D
:1015C00012D9BC01882777FD8095982F57D320E04A
:1015D00030E040E85AE306D420E030E040EA50E44E
:1015E00001D420E030E048EC52E4FCD36093CB021D
:1015F0007093CC028093CD029093CE028091E6024C
:10160000882311F1AADD8091C8028823E9F01092A5
:10161000C802809101029091020201979093020208
:10162000809301028091010290910202181619061E
:101630000CF464C080910002811134C05FC08091BD
:101640000002882309F463C008D98091DE02882350
:1016500009F448CF95D8282F392F8091C90290914D
:10166000CA022817390709F43DCF3093CA022093E4
:10167000C90233230CF436CF2A3031055CF02D300B
:10168000310509F02FCF9091E80281E089278093FE
:10169000E80228CF8091E802882309F423CFC9010A
:1016A000ADDA20CF6091CF027091D0028091D1024B
:1016B0009091D202A1DDAFD2709302026093010239
:1016C00080910102909102029F938F931F930F9339
:1016D000CF920E94DB01109200028AEB92E00E94FE
:1016E000CB0040E050E06CE070E08BEB92E03CD04F
:1016F0000F900F900F900F900F90A6CF8091010246
:1017000090910202181619060CF49ECF98CFF09211
:101710000202E092010281E0809300028AEB92E0F3
:101720000E94C40041E050E06CE070E08BEB92E07E
:101730001BD08ACF1092BD021092BC020895EAE03D
:10174000F1E08081846080838081806180839A9AC7
:10175000989A8081806480830B9A099A0D9A389AAE
:101760003C9A0F9A3E9A08956630710509F46AC052
:10177000A4F46230710509F44BC044F4611571059D
:1017800099F16130710509F086C020C0643071059F
:1017900009F44AC00CF042C035C06930710509F443
:1017A00063C04CF46730710509F452C068307105AC
:1017B00009F071C053C06B30710509F461C00CF4BD
:1017C00059C06C30710509F066C060C0452B31F01E
:1017D000EBE0F1E08081846080830895EBE0F1E04C
:1017E00080818B7F80830895452B31F0EBE0F1E021
:1017F0008081806180830895EBE0F1E080818F7EBD
:1018000080830895452B11F0A29A0895A298089517
:10181000452B11F0A29A0895A2980895452B11F036
:10182000A09A0895A0980895452B31F0EBE0F1E0DF
:101830008081806480830895EBE0F1E080818F7B7C
:1018400080830895452B11F0139A089513980895F5
:10185000452B11F0159A089515980895452B11F010
:10186000119A089511980895452B11F0409A089502
:1018700040980895452B11F0449A0895449808958E
:10188000452B11F0179A089517980895452B11F0DC
:10189000469A08954698089517D0269A259A2D9825
:1018A00008952E9AE7EAF1E63197F1F700C00000BB
:1018B00054C028C0089553D087EA91E60197F1F704
:1018C00000C000002E980895E0E8F0E02081206834
:1018D0002083208122602083E1E8F0E020812861DC
:1018E000208320812260208320ED37E0FC013183BA
:1018F00020833093870020938600109289001092F5
:1019000088000895CF92DF92EF92FF92CF93DF93FA
:10191000EC01882777FD8095982FB0D120E030E04A
:1019200048EC52E410D16B017C01688179818827F1
:1019300077FD8095982FA2D19B01AC01C701B6011C
:1019400051D26ED17093890060938800DF91CF915E
:10195000FF90EF90DF90CF900895D4CF089510922C
:101960008900109288000895FC01718360830895B6
:10197000FC01808191818330910581F01CF40197F5
:10198000F1F406C08430910579F00597C1F412C0D6
:10199000E1E8F0E08081887F80830895E1E9F0E06C
:1019A0008081887F80830895E1EAF0E08081887FEC
:1019B00080830895E1E2F1E08081887F808308954B
:1019C000FC01808191818330910581F01CF40197A5
:1019D000F1F406C08430910579F00597C1F412C086
:1019E000EFE6F0E08081826080830895E1E7F0E037
:1019F0008081826080830895E2E7F0E080818260E8
:101A000080830895E3E7F0E0808182608083089519
:101A1000FC018081918185309105A9F4882777FDAB
:101A20008095982F2BD120E030E04AE751E4DAD1BD
:101A3000F2D07093290160932801E1E2F1E0808106
:101A40008560808308950397A1F4882777FD8095AA
:101A5000982F14D120E030E04AE751E4C3D1DBD025
:101A60007093990060939800E1E9F0E080818560CF
:101A7000808308955058BB27AA270ED075C166D120
:101A800030F06BD120F031F49F3F11F41EF45BC1B4
:101A90000EF4E095E7FB51C1E92F77D180F3BA1737
:101AA000620773078407950718F071F49EF58FC1DC
:101AB0000EF4E0950B2EBA2FA02D0B01B901900169
:101AC0000C01CA01A0011124FF27591B99F0593FAD
:101AD00050F4503E68F11A16F040A22F232F342FF5
:101AE0004427585FF3CF469537952795A795F04043
:101AF0005395C9F77EF41F16BA0B620B730B840B58
:101B0000BAF09150A1F0FF0FBB1F661F771F881F0F
:101B1000C2F70EC0BA0F621F731F841F48F4879567
:101B200077956795B795F7959E3F08F0B3CF939556
:101B3000880F08F09927EE0F979587950895D9D0CB
:101B400008F481E008950CD00FC107D140F0FED019
:101B500030F021F45F3F19F0F0C0511139C1F3C0EA
:101B600014D198F39923C9F35523B1F3951B550B61
:101B7000BB27AA2762177307840738F09F5F5F4F60
:101B8000220F331F441FAA1FA9F333D00E2E3AF0A1
:101B9000E0E830D091505040E695001CCAF729D0BB
:101BA000FE2F27D0660F771F881FBB1F261737070A
:101BB0004807AB07B0E809F0BB0B802DBF01FF273A
:101BC00093585F4F2AF09E3F510568F0B6C000C1A0
:101BD0005F3FECF3983EDCF3869577956795B79574
:101BE000F7959F5FC9F7880F911D9695879597F98F
:101BF0000895E1E0660F771F881FBB1F6217730708
:101C00008407BA0720F0621B730B840BBA0BEE1F1C
:101C100088F7E095089504D06894B111D9C008956B
:101C2000BCD088F09F5790F0B92F9927B751A0F0FA
:101C3000D1F0660F771F881F991F1AF0BA95C9F760
:101C400012C0B13081F0C3D0B1E00895C0C0672F99
:101C5000782F8827B85F39F0B93FCCF38695779510
:101C60006795B395D9F73EF49095809570956195F9
:101C70007F4F8F4F9F4F0895E89409C097FB3EF424
:101C800090958095709561957F4F8F4F9F4F9923C9
:101C9000A9F0F92F96E9BB279395F6958795779547
:101CA0006795B795F111F8CFFAF4BB0F11F460FF07
:101CB0001BC06F5F7F4F8F4F9F4F16C0882311F05F
:101CC00096E911C0772321F09EE8872F762F05C073
:101CD000662371F096E8862F70E060E02AF09A950E
:101CE000660F771F881FDAF7880F9695879597F903
:101CF0000895990F0008550FAA0BE0E8FEEF16169D
:101D00001706E807F907C0F012161306E407F507EF
:101D100098F0621B730B840B950B39F40A2661F063
:101D2000232B242B252B21F408950A2609F4A14006
:101D3000A6958FEF811D811D089597F99F6780E813
:101D400070E060E008959FEF80EC089500240A940D
:101D50001616170618060906089500240A94121686
:101D60001306140605060895092E0394000C11F4B9
:101D7000882352F0BB0F40F4BF2B11F460FF04C066
:101D80006F5F7F4F8F4F9F4F089557FD9058440FBF
:101D9000551F59F05F3F71F04795880F97FB991FCA
:101DA00061F09F3F79F08795089512161306140687
:101DB000551FF2CF4695F1DF08C016161706180614
:101DC000991FF1CF86957105610508940895E894EF
:101DD000BB2766277727CB0197F908958ADF08F498
:101DE0008FEF08950BD0C0CFB1DF28F0B6DF18F029
:101DF000952309F0A2CFA7CF1124EACFC6DFA0F325
:101E0000959FD1F3950F50E0551F629FF001729F8F
:101E1000BB27F00DB11D639FAA27F00DB11DAA1FAE
:101E2000649F6627B00DA11D661F829F2227B00DFB
:101E3000A11D621F739FB00DA11D621F839FA00D86
:101E4000611D221F749F3327A00D611D231F849FD6
:101E5000600D211D822F762F6A2F11249F5750402D
:101E60008AF0E1F088234AF0EE0FFF1FBB1F661FC8
:101E7000771F881F91505040A9F79E3F510570F081
:101E80005CCFA6CF5F3FECF3983EDCF38695779569
:101E90006795B795F795E7959F5FC1F7FE2B880F7C
:101EA000911D9695879597F90895AA1BBB1B51E143
:101EB00007C0AA1FBB1FA617B70710F0A61BB70BBA
:101EC000881F991F5A95A9F780959095BC01CD015F
:101ED00008950790F691E02D1994FB019F01E89475
:101EE0004230BCF04532ACF44A3029F497FB1EF482
:101EF000909581959F4F642F7727D7DF805D8A3338
:101F00000CF0895D8193CB010097A9F716F45DE28F
:101F100051931082C90100C0DC01FC01672F71914F
:101F20007723E1F7329704C07C916D9370836291BF
:0C1F3000AE17BF07C8F30895F894FFCF68
:101F3C00013C0025000103001E000A003025643A14
:101F4C0025643A25640030303A30303A3030003075
:101F5C0025643A3025643A302564003025643A30E3
:101F6C0025643A2564003025643A25643A302564AA
:101F7C00004B6579706164202562005354415254C2
:101F8C002050484F544F0053544F502050484F54FA
:101F9C004F00535441525420494E43554241544FE3
:101FAC00520053544F5020494E43554241544F52C6
:101FBC00005245534554004E6F74206F6B6179008D
:101FCC0054413A25664320202054533A2566430059
:101FDC00543A2566432052483A256625004F6666DA
:0A1FEC002074696D653A2025640039
:00000001FF
