:1000000072C00000A1C000009FC000009DC00000A1
:100010009BC0000099C0000097C0000095C0000080
:1000200093C0000091C000008FC000008DC0000090
:100030008BC0000089C0000087C0000085C00000A0
:1000400083C0000081C000007FC000007DC00000B0
:100050007BC0000079C0000077C0000075C00000C0
:1000600073C0000071C000006FC000006DC00000D0
:100070006BC0000069C0000067C0000065C00000E0
:1000800056C6000061C000005FC000005DC00000F7
:100090005BC0000059C0000057C0000055C0000000
:1000A00053C0000051C000004FC000004DC0000010
:1000B0004BC0000049C0000047C0000025C600003A
:1000C00043C0000041C000003FC000003DC0000030
:1000D0003BC0000039C0000037C0000035C0000040
:1000E00033C00000AB0C11241FBECFEFD1E2DEBF46
:1000F000CDBF00E00CBF12E0A0E0B2E0EEE6F1E21E
:1001000000E00BBF02C007900D92AA3BB107D9F7E0
:1001100022E0AAEBB2E001C01D92AD3FB207E1F7C9
:1001200010E0C6EED0E000E006C022970109FE0113
:100130000BBF0E948210C43ED10780E00807A9F7D8
:100140000E94C80A0C94B5105BCF25B144B181E080
:1001500090E0BC0102C0660F771F2A95E2F79B0171
:10016000242B24B935B124B102C0880F991F3A95C8
:10017000E2F7822B84B984B1806984B908952F9AFB
:1001800085B1806985B908952C9A08952F9885B115
:100190008F7685B908952C98089595ED9A95F1F785
:1001A0000000882314F4A59A01C0A59886FF02C018
:1001B000739A01C0739885FF06C0E2E0F1E0908178
:1001C0009860908305C0E2E0F1E09081977F908392
:1001D00084FF06C0E2E0F1E090819061908305C069
:1001E000E2E0F1E090819F7E9083E2E0F1E0908197
:1001F0009062908390819F7D908383FF02C0A59A37
:1002000001C0A59882FF02C0739A01C0739881FF54
:1002100006C0E2E0F1E090819860908305C0E2E0E2
:10022000F1E09081977F908380FF06C0E2E0F1E0EB
:1002300080818061808305C0E2E0F1E080818F7E73
:100240008083E2E0F1E080818062808380818F7D25
:1002500080830895E2E0F1E080818F7B808381E0FC
:100260009CDF8FE39FE10197F1F700C00000089544
:10027000CF93DF93EC01E2E0F1E080818064808342
:100280008881882329F0219688DF89918111FCCF0C
:10029000DF91CF910895E2E0F1E090819064908346
:1002A0007CCFE2E0F1E090819F7B9083611102C0FE
:1002B000805873CF613011F480546FCF623011F4E5
:1002C0008C566BCF8C5269CFE1E0F1E08081806485
:1002D00080838081806280839D9A6B9A8081886010
:1002E0008083808180618083E2E0F1E080818F7B88
:1002F000808380818F7D80838FE59AEE0197F1F76F
:1003000000C000008081806180838081886080835C
:100310007398A59880818062808380818F7D80839F
:100320008FE19EE40197F1F700C0000080818062B8
:10033000808380818F7D80838FE193E00197F1F747
:1003400000C0000080818062808380818F7D8083F7
:100350008FE193E00197F1F700C0000080818F7E6C
:1003600080838081886080837398A5988081806273
:10037000808380818F7D808388E20FDF8EE00DDFB8
:1003800069DF86E00ACFCF93DF9300D000D0CDB7EE
:10039000DEB7AB01BE016F5F7F4F0E948610CE01BA
:1003A000019666DF26960FB6F894DEBF0FBECDBF6E
:1003B000DF91CF9108954F925F926F927F92AF92AB
:1003C000BF92CF92DF92EF92FF920F931F93CF9342
:1003D000DF93CDB7DEB78A89EB88FC88813021F4C2
:1003E00060E080E05EDF11C0823021F461E080E0F7
:1003F00058DF0BC0833021F462E080E052DF05C09B
:10040000843019F463E080E04CDF6E0185E1C80EB2
:10041000D11CF7018081882309F4B2C0853209F02C
:1004200098C087010F5F1F4FF7018181863609F45D
:1004300049C030F4823661F0843609F086C020C0AD
:10044000833751F1883781F08F3609F07EC071C053
:100450007601F2E0EF0EF11C62E070E0F6018081BF
:10046000918191DF670184C07601F2E0EF0EF11C0B
:1004700060E170E0F6018081918185DF670178C0DD
:100480007601F2E0EF0EF11C6AE070E0F601808187
:10049000918179DF67016CC0F60182E0C80ED11C42
:1004A0000190F081E02D8081882309F461C07F01F3
:1004B0009FEFE91AF90AEFDEF70181917F018111BF
:1004C000FACF56C05601F4E0AF0EB11CF6014080E1
:1004D000518062807380C301B2010E94240F6B01BE
:1004E0007C01882777FD8095982F0E94570F9B01EC
:1004F000AC01C301B2010E94530E20E030E048EC91
:1005000052E40E940B100E94240F662E772E6AE0A0
:1005100070E0C60138DF8EE2BEDE862D972D99236E
:100520001CF49195819591096AE070E02CDF6501DA
:100530001FC07601F2E0EF0EF11C68E070E0F601FA
:100540008081918120DF670113C085E2A4DE8701ED
:100550000FC0893021F480E29EDE870109C08A3015
:1005600029F461E080E09DDE870102C094DE87010E
:100570007801FFEFEF1AFF0AF801818181114ECF58
:10058000DF91CF911F910F91FF90EF90DF90CF906F
:10059000BF90AF907F906F905F904F90089587B11C
:1005A000826887B987B1886287B981B18A7A81B94F
:1005B00088B18A6A88B982B1856582B908954198FF
:1005C000439A459A479A8FE59AEE0197F1F700C052
:1005D0000000069961C0319B30C05EC0319B30C0C5
:1005E0005DC0319B30C05CC0319B30C05BC0339B71
:1005F00030C068C0339B30C067C0339B30C066C01A
:10060000339B30C065C0359B30C072C0359B30C055
:1006100071C0359B30C070C0359B30C06FC0379BF8
:1006200030C07CC0379B30C07BC0379B30C07AC0A5
:1006300037997AC020E130E02CC021E030E029C0B9
:1006400024E030E026C027E030E023C02CE030E09A
:1006500020C022E030E01DC025E030E01AC028E0D4
:1006600030E017C020E030E014C023E030E011C0DB
:1006700026E030E00EC029E030E00BC02BE030E097
:1006800008C02DE030E005C02EE030E002C02FE0D1
:1006900030E0822F932F0895049BA0CF029BA1CF1F
:1006A000009BA2CF419A8FE19EE40197F1F700C031
:1006B000000043988FE59AEE0197F1F700C0000023
:1006C000069B95CF049B96CF029B97CF009B98CF1C
:1006D000439A8FE19EE40197F1F700C0000045982E
:1006E0008FE59AEE0197F1F700C00000069B8BCFD3
:1006F000049B8CCF029B8DCF009B8ECF459A8FE1C0
:100700009EE40197F1F700C0000047988FE59AEE4C
:100710000197F1F700C00000069B81CF049B82CFB8
:10072000029B83CF009B84CF479A8FE19EE4019781
:10073000F1F700C000008AE090E090930B028093F4
:100740000A022AE030E0A5CF41984398459847989F
:10075000069B0BC0049B0CC0029B0DC090B181E0B6
:100760008927282F217030E008C021E030E005C043
:1007700021E030E002C021E030E0822F932F089585
:10078000E3DF019751F420910A0230910B022A30E5
:10079000310519F0822F932F089511DF9C0190935A
:1007A0000B0280930A02F6CFEAE7F0E080818068CE
:1007B0008083ACE7B0E08C9180648C938C91807ED8
:1007C0008C9380818660808380818160808380813A
:1007D00080648083808186FDFDCFEAE7F0E0808140
:1007E0008F7780830895ECE7F0E090818770987FA1
:1007F000982B9083EAE7F0E08081806C8083808191
:1008000086FDFDCF2091780030917900822F932FC3
:100810000895CADFC4DE58DD1DDD8BEB92E00E9437
:10082000B80C60EA7FE08CEB92E00E94650D8AEBE9
:1008300092E08BDC65E070E080EC92E00E94CD0DF0
:1008400080EC92E00E94F90D63E070E08EEB92E0A4
:100850000E94CD0D8EEB92E00C94F90D8091FB027D
:100860009091FC02892B09F0DDC0809106029091E5
:100870000702892B09F0D6C08091080290910902E5
:10088000892B09F4C4C0CEC0809106029091070262
:100890000A970CF0CEC080910802909109020A9745
:1008A0000CF4CFC0C6C080910602909107020A974F
:1008B0000CF4E9C00AC180910802909109020A97DC
:1008C0000CF40BC12CC180910802909109020A9787
:1008D0000CF42DC14EC140910802509109022091A3
:1008E0000602309107028091FB029091FC025F9317
:1008F0004F933F932F939F938F938CE292E09F931C
:100900008F9383E08F9357DD8DB79EB709960FB60F
:10091000F8949EBF0FBE8DBF71C080910802909168
:1009200009020A9714F5409108025091090220919A
:100930000602309107028091FB029091FC025F93C6
:100940004F933F932F939F938F9387E392E09F93CF
:100950008F9383E08F932FDD8DB79EB709960FB6E7
:10096000F8949EBF0FBE8DBF49C08091FB0290914D
:10097000FC020A9714F54091080250910902209157
:100980000602309107028091FB029091FC025F9376
:100990004F933F932F939F938F938CE092E09F937D
:1009A0008F9383E08F9307DD8DB79EB709960FB6BF
:1009B000F8949EBF0FBE8DBF21C040910802509198
:1009C000090220910602309107028091FB0290916A
:1009D000FC025F934F933F932F939F938F938DE0F0
:1009E00092E09F938F9383E08F93E5DC8DB79EB762
:1009F00009960FB6F8949EBF0FBE8DBF8091EA0294
:100A0000882309F4BEC064E08091EB024ACC86E101
:100A100092E09F938F9383E08F93CDDC0F900F90A4
:100A20000F90ECCF8091FB029091FC020A970CF49E
:100A30002BCF8091FB029091FC020A970CF433CFEC
:100A400044C0409108025091090220910602309161
:100A500007028091FB029091FC025F934F933F93BA
:100A60002F939F938F938FE192E09F938F9383E0D7
:100A70008F93A1DC8DB79EB709960FB6F8949EBFF1
:100A80000FBE8DBFBBCF409108025091090220914B
:100A90000602309107028091FB029091FC025F9365
:100AA0004F933F932F939F938F938BE292E09F936B
:100AB0008F9383E08F937FDC8DB79EB709960FB637
:100AC000F8949EBF0FBE8DBF99CF8091FB0290918D
:100AD000FC020A970CF4EFCE22C04091080250911C
:100AE000090220910602309107028091FB02909149
:100AF000FC025F934F933F932F939F938F9386E3D3
:100B000092E09F938F9383E08F9355DC8DB79EB7D0
:100B100009960FB6F8949EBF0FBE8DBF6FCF809120
:100B20000602909107020A970CF4CDCE22C04091A4
:100B3000080250910902209106023091070280912B
:100B4000FB029091FC025F934F933F932F939F93EF
:100B50008F9380E292E09F938F9383E08F932BDCBF
:100B60008DB79EB709960FB6F8949EBF0FBE8DBF86
:100B700045CF80910602909107020A970CF0CDCEE6
:100B8000AACE08952091ED023091EE02EFEEF2E050
:100B9000D901AA0FBB1FAE0FBF1F8D939C932F5F70
:100BA0003F4F3093EE022093ED0280819181880FB8
:100BB000991F9C01220F331F220F331F820F931F97
:100BC0002091F1023091F202820F931F9093FC0268
:100BD0008093FB029093FC028093FB028091FB02C6
:100BE0009091FC02992334F08091FB029091FC02D9
:100BF000489754F01092EE021092ED028FEF9FEFA3
:100C00009093EC028093EB02E3EFF2E0808191811C
:100C1000880F991F9C01220F331F220F331F820F51
:100C2000931F2091F5023091F602820F931F90934B
:100C30000702809306028091060290910702CC97EA
:100C400034F48091060290910702992334F482E0F3
:100C500090E09093EE028093ED02E7EFF2E0808166
:100C60009181880F991F9C01220F331F220F331F80
:100C7000820F931F2091F9023091FA02820F931F85
:100C800090930902809308028091080290910902D2
:100C9000CC9734F4809108029091090299233CF496
:100CA00084E090E09093EE028093ED0211C0809179
:100CB000ED029091EE028230910539F483E090E0EC
:100CC0009093EC028093EB0208958430910539F4FF
:100CD00086E090E09093EC028093EB0208952091DF
:100CE000EB023091EC022F5F3F4F3093EC022093E8
:100CF000EB02069741F41092EE021092ED02109270
:100D0000EC021092EB0208951F920F920FB60F9211
:100D100011248F93109225011092240181E0809379
:100D2000E1028F910F900FBE0F901F9018951F92A8
:100D30000F920FB60F9211248F931092950010927C
:100D4000940081E08093C8028F910F900FBE0F90A6
:100D50001F901895CF92DF92EF92FF92CF93C090A1
:100D6000D502D090D602E090D702F090D80220E0D1
:100D700030E04CE052E4C701B6010E94071018169B
:100D80007CF440E050E064E070E08BEB92E005D64C
:100D900041E050E065E070E08BEB92E0FED526C0CC
:100DA00020E030E048EF51E4C701B601E1D78823E5
:100DB0007CF440E050E065E070E08BEB92E0EDD534
:100DC00041E050E064E070E08BEB92E0E6D50EC0CD
:100DD00040E050E065E070E08BEB92E0DED540E073
:100DE00050E064E070E08BEB92E0D7D5C090CD028C
:100DF000D090CE02E090CF02F090D00220E030E020
:100E00004CE052E4C701B6010E94071018167CF4AA
:100E100040E050E060E070E08BEB92E0BED541E056
:100E200050E061E070E08BEB92E0B7D526C020E0A7
:100E300030E048EF51E4C701B6019AD788237CF42B
:100E400040E050E061E070E08BEB92E0A6D541E03D
:100E500050E060E070E08BEB92E09FD50EC040E088
:100E600050E061E070E08BEB92E097D540E050E01D
:100E700060E070E08BEB92E090D5C090D902D0900A
:100E8000DA02E090DB02F090DC0220E030E040E7A4
:100E900052E4C701B6010E94071018167CF440E026
:100EA00050E062E070E08BEB92E077D541E050E0FB
:100EB00063E070E08BEB92E070D526C020E030E07C
:100EC0004CE052E4C701B60153D788237CF441E0DB
:100ED00050E062E070E08BEB92E05FD540E050E0E4
:100EE00063E070E08BEB92E058D50EC040E050E03C
:100EF00063E070E08BEB92E050D540E050E062E0C0
:100F000070E08BEB92E049D58091060184FD2CC105
:100F10008091DF02811128C10EC141E050E069E0FB
:100F200070E08BEB92E039D507C040E050E069E01B
:100F300070E08BEB92E031D581E08093DF027F9906
:100F400026C18091E602811122C111C181E0809306
:100F5000E70262E370E08CEB92E0BCD581E0809325
:100F6000E60202C01092E6028091060180FD25C1D2
:100F70008091E502811121C10DC11092E5027D9998
:100F800021C18091E40281111DC11FC18AEB92E051
:100F9000F6D88AEB92E0F8D880910302909104028F
:100FA0009093CA028093C902C1E0C093000268EE28
:100FB00073E08EEB92E045D6C093E802C093E9025D
:100FC00062E370E08CEB92E085D5C093E70210926B
:100FD000EA0268EE73E080EC92E033D641E050E044
:100FE00066E070E08BEB92E0D8D441E050E06CE03A
:100FF00070E08BEB92E0D1D441E050E06BE070E028
:101000008BEB92E0CAD481E08093E40202C010929C
:10101000E4028091E902811137C08091E8028823BF
:1010200099F18CEB92E060D51092E80280EC92E0AE
:10103000B8D540E050E066E070E08BEB92E0ADD4D4
:1010400040E050E06CE070E08BEB92E0A6D440E032
:1010500050E06BE070E08BEB92E09FD48091030254
:10106000909104029093CA028093C90281E0809318
:1010700000028EEB92E095D51092E7028AEB92E0A7
:1010800085D88AEB92E087D87E99F1C08091E302FF
:101090008111EDC0AAC01092E3028091060181FD8A
:1010A000FDC08091E2028111F9C0E4C01092DE021D
:1010B000C1E0C093DD02C093E802C093E90262E39D
:1010C00070E08CEB92E006D5C093E7021092EA0242
:1010D00068EE73E080EC92E0B4D541E050E066E069
:1010E00070E08BEB92E059D441E050E06CE070E0AE
:1010F0008BEB92E052D441E050E06BE070E08BEB80
:1011000092E04BD48AEB92E03AD88AEB92E03CD85A
:1011100080910302909104029093CA028093C902C5
:10112000C093000268EE73E08EEB92E08AD5BAC0FD
:101130001092E202B7C09091E00281E0892780938B
:10114000E0021F928F9381E492E09F938F9384E05B
:101150008F9331D90F900F900F900F900F90809137
:10116000E0028111DACEE1CE1092DF02E8CE8BE40C
:1011700092E09F938F9384E08F931DD90F900F90EF
:101180000F9080910502882309F4E8CEDFCE7F9B83
:10119000EBCEE8CE87E592E09F938F9384E08F9328
:1011A0000AD91092E7028CEB92E09ED481E0809302
:1011B000E5020F900F900F90E2CE8091060180FD26
:1011C000DCCEDDCE7D9923CF24CF82E692E09F93C3
:1011D0008F9384E08F93EFD80F900F900F908091B2
:1011E0000502882309F40FCFD1CE82E792E09F93C6
:1011F0008F9384E08F93DFD81092E8021092E70279
:101200008CEB92E071D480EC92E0CBD4C1E0C0933F
:10121000E30240E050E066E070E08BEB92E0BDD38B
:1012200040E050E06CE070E08BEB92E0B6D340E041
:1012300050E06BE070E08BEB92E0AFD38AEB92E092
:101240000E94C6008AEB92E00E94CB0080910302CC
:10125000909104029093CA028093C902C093000245
:101260008EEB92E09ED40F900F900F9016CF7E9948
:1012700012CF13CF81E892E09F938F9384E08F93F6
:101280009AD881E08093E2028093DE020F900F9063
:101290000F9080910502882329F008CF80910601E4
:1012A00081FF46CFCF91FF90EF90DF90CF900895D0
:1012B0008091E102882309F449C01092E1028091F3
:1012C0000802909109020197909309028093080205
:1012D00080910802909109029923C4F58091060239
:1012E00090910702019790930702809306028BE387
:1012F00090E09093090280930802809106029091F9
:10130000070299231CF58091FB029091FC02019742
:101310009093FC028093FB028BE390E09093070292
:10132000809306028091FB029091FC02992374F451
:1013300010920902109208021092070210920602FF
:101340001092FC021092FB021092E9020895CF92D3
:10135000DF92EF92FF920F931F93CF93DF936B0176
:101360007C016091010270910202882777FD8095CF
:10137000982F9DD5A701960196D420E030E040E05B
:101380005FE349D69B01AC0160E070E080E491E44A
:101390008AD4C62ED72EE82EF92E062F172FD82F37
:1013A000C92F20E030E040E451E431D6181664F053
:1013B00020E030E040E050E46C2D7D2D8E2D9F2DFF
:1013C000D7D4882334F009C000E010E0D0E4C1E4B1
:1013D00004C000E010E0D0E0C0E4602F712F8D2F3A
:1013E0009C2FDF91CF911F910F91FF90EF90DF9095
:1013F000CF900895849A8C988FE19EE40197F1F73D
:1014000000C000008C9A0895849886E590E006C09C
:1014100025E02A95F1F70000019751F07C99F8CF6B
:1014200007C025E02A95F1F70000019719F40CC0D8
:1014300086E590E07C9BF5CF07C025E02A95F1F783
:101440000000019719F4089586E590E07C99F5CFA6
:10145000089528E030E007C045E04A95F1F7000024
:10146000019719F429C088E390E07C9BF5CF80EACE
:101470008A95F1F77C9B09C08091C70290E0880FA4
:10148000991F81608093C7020DC08091C702880FA9
:101490008093C70207C045E04A95F1F70000019725
:1014A00019F40CC08EE290E07C99F5CF21503109FF
:1014B000D1F68091C702089580E0089580E00895F4
:1014C000CF92DF92EF92FF920F931F93CF93DF9310
:1014D0007C01EB018FDF98DFBCDF8093C602B9DFB0
:1014E0008093C502B6DF8093C402B3DF8093C3024A
:1014F000B0DF8093C2022091C30230E04091C40269
:1015000050E0D42ECC24C22AD32AE091C502F0E0C8
:10151000A091C602B0E01A2F00270E2B1F2BEA0F56
:10152000FB1F4E0F5F1F240F351F90E02817390750
:1015300059F087E892E09F938F9384E08F930E9405
:10154000DB010F900F900F90B60180E090E0ADD4DA
:1015500020E030E040E251E40FD4F7016083718372
:1015600082839383B80180E090E09FD420E030E054
:1015700040E251E401D4688379838A839B83DF91BD
:10158000CF911F910F91FF90EF90DF90CF90089532
:1015900078943FD98091D0028F938091CF028F931E
:1015A0008091CE028F938091CD028F938091D4024F
:1015B0008F938091D3028F938091D2028F938091E9
:1015C000D1028F9380E992E09F938F9381E08F9374
:1015D0000E94DB018091DC028F938091DB028F936C
:1015E0008091DA028F938091D9028F9386EA92E0FC
:1015F0009F938F9382E08F930E94DB0186E192E0BC
:101600009F938F9383E08F930E94DB018DB79EB7EA
:1016100045960FB6F8949EBF0FBE8DBF00EA12E04C
:101620006894222421F8CCE9D2E00F2EF5E03F2E79
:10163000F02D0F2EFDEACF2EF2E0DF2EF02D0F2E33
:10164000F4E18F2E912CF02D0F2EFCE3AF2EB12C58
:10165000F02D0F2EFAE0EF2EF12CF02D8091E1020B
:10166000882309F492C069ED72E085ED92E028DFED
:1016700081E0B9D8BC01882777FD8095982F17D4D1
:1016800020E030E040E85AE3C6D420E030E040EA11
:1016900050E4C1D420E030E048EC52E4BCD4609384
:1016A000D1027093D2028093D3029093D40283E04C
:1016B0009AD8BC01882777FD8095982FF8D320E031
:1016C00030E040E85AE3A7D420E030E040EA50E4BC
:1016D000A2D420E030E048EC52E49DD46093CD02E7
:1016E0007093CE028093CF029093D0028091DC025F
:1016F0008F938091DB028F938091DA028F93809198
:10170000D9028F938091D8028F938091D7028F93C3
:101710008091D6028F938091D5028F931F930F9360
:101720002F920E94DB0160E083E00E9451018091D2
:10173000D4028F938091D3028F938091D2028F93A2
:101740008091D1028F93DF93CF933F920E94DB0170
:1017500060E08DE00E9451018091D0028F938091D2
:10176000CF028F938091CE028F938091CD028F9381
:10177000DF93CF933F920E94DB018DB79EB74996CE
:101780000FB6F8949EBF0FBE8DBF68D8E3DA80E035
:101790002AD8BC018091E802811105C08091E7023E
:1017A000882309F463C0882777FD8095982F7FD31D
:1017B00020E030E040E85AE32ED420E030E048EC6E
:1017C00052E429D441D38CEB92E08CD18091E80291
:1017D000882309F44BC06CDD8091C802882309F48A
:1017E00045C01092C8028091C9029091CA02019727
:1017F0009093CA028093C9024090D5025090D602BD
:101800006090D7027090D80220E030E048E052E4C7
:10181000C301B201FCD318162CF4F0920402E0923A
:10182000030212C020E030E040EF51E4C301B201F6
:101830009FD288232CF4B0920402A092030204C029
:1018400090920402809203028091C9029091CA0290
:10185000181619060CF45FC080910002811134C083
:101860005AC080910002882309F45EC08091E00292
:10187000882309F4F3CE0E94C003282F392F8091CA
:10188000CB029091CC022817390709F4E7CE3093A8
:10189000CC022093CB0233230CF4E0CE2A30310566
:1018A0005CF02D30310509F0D9CE9091EA0281E04B
:1018B00089278093EA02D2CE8091EA02882309F434
:1018C000CDCEC9015FD9CACEC301B20140DDBCD2C1
:1018D0007093CA026093C9028091C9029091CA02B2
:1018E0009F938F93DF92CF9294E09F930E94DB01AE
:1018F000109200028AEB92E00E94CB0040E050E0A0
:101900006CE070E08BEB92E048D00F900F900F905E
:101910000F900F90ABCF8091C9029091CA02181618
:1019200019060CF4A3CF9DCF80910302909104027D
:101930009093CA028093C90281E0809300028AEBEF
:1019400092E00E94C40041E050E06CE070E08BEB5C
:1019500092E023D08BCF8091030290910402909368
:10196000CA028093C9021092BD021092BC0208956F
:10197000EAE0F1E0808184608083808180618083FF
:101980009A9A989A8081806480830B9A099A0D9A1A
:10199000389A3C9A0F9A3E9A08956630710509F478
:1019A0006AC0A4F46230710509F44BC044F46115B7
:1019B000710599F16130710509F086C020C064306D
:1019C000710509F44AC00CF042C035C06930710598
:1019D00009F463C04CF46730710509F452C06830F3
:1019E000710509F071C053C06B30710509F461C015
:1019F0000CF459C06C30710509F066C060C0452B0D
:101A000031F0EBE0F1E08081846080830895EBE0C9
:101A1000F1E080818B7F80830895452B31F0EBE0EE
:101A2000F1E08081806180830895EBE0F1E08081C6
:101A30008F7E80830895452B11F0A29A0895A29875
:101A40000895452B11F0A29A0895A2980895452B68
:101A500011F0A09A0895A0980895452B31F0EBE07D
:101A6000F1E08081806480830895EBE0F1E0808183
:101A70008F7B80830895452B11F0139A0895139856
:101A80000895452B11F0159A089515980895452B42
:101A900011F0119A089511980895452B11F0409A6C
:101AA000089540980895452B11F0449A089544985C
:101AB0000895452B11F0179A089517980895452B0E
:101AC00011F0469A08954698089517D0269A259AB7
:101AD0002D9808952E9AE7EAF1E63197F1F700C0C4
:101AE000000054C028C0089553D087EA91E60197BA
:101AF000F1F700C000002E980895E0E8F0E02081A2
:101B000020682083208122602083E1E8F0E02081AA
:101B10002861208320812260208320ED37E0FC01B2
:101B200031832083309387002093860010928900B0
:101B3000109288000895CF92DF92EF92FF92CF9398
:101B4000DF93EC01882777FD8095982FB0D120E0B6
:101B500030E048EC52E410D16B017C01688179815E
:101B6000882777FD8095982FA2D19B01AC01C701F2
:101B7000B60151D26ED17093890060938800DF91D5
:101B8000CF91FF90EF90DF90CF900895D4CF08953C
:101B900010928900109288000895FC01718360837F
:101BA0000895FC01808191818330910581F01CF4BE
:101BB0000197F1F406C08430910579F00597C1F4DE
:101BC00012C0E1E8F0E08081887F80830895E1E938
:101BD000F0E08081887F80830895E1EAF0E08081F1
:101BE000887F80830895E1E2F1E08081887F8083AF
:101BF0000895FC01808191818330910581F01CF46E
:101C00000197F1F406C08430910579F00597C1F48D
:101C100012C0EFE6F0E08081826080830895E1E702
:101C2000F0E08081826080830895E2E7F0E08081C7
:101C3000826080830895E3E7F0E0808182608083A2
:101C40000895FC018081918185309105A9F4882750
:101C500077FD8095982F2BD120E030E04AE751E4C2
:101C6000DAD1F2D07093290160932801E1E2F1E02A
:101C700080818560808308950397A1F4882777FD8C
:101C80008095982F14D120E030E04AE751E4C3D189
:101C9000DBD07093990060939800E1E9F0E08081D7
:101CA0008560808308955058BB27AA270ED075C140
:101CB00066D130F06BD120F031F49F3F11F41EF467
:101CC0005BC10EF4E095E7FB51C1E92F77D180F3BA
:101CD000BA17620773078407950718F071F49EF529
:101CE0008FC10EF4E0950B2EBA2FA02D0B01B90178
:101CF00090010C01CA01A0011124FF27591B99F082
:101D0000593F50F4503E68F11A16F040A22F232F8D
:101D1000342F4427585FF3CF469537952795A795DD
:101D2000F0405395C9F77EF41F16BA0B620B730B84
:101D3000840BBAF09150A1F0FF0FBB1F661F771FF5
:101D4000881FC2F70EC0BA0F621F731F841F48F4AA
:101D5000879577956795B795F7959E3F08F0B3CF30
:101D60009395880F08F09927EE0F9795879508951A
:101D7000D9D008F481E008950CD00FC107D140F00C
:101D8000FED030F021F45F3F19F0F0C0511139C19D
:101D9000F3C014D198F39923C9F35523B1F3951BDC
:101DA000550BBB27AA2762177307840738F09F5F7C
:101DB0005F4F220F331F441FAA1FA9F333D00E2EEB
:101DC0003AF0E0E830D091505040E695001CCAF758
:101DD00029D0FE2F27D0660F771F881FBB1F26171D
:101DE00037074807AB07B0E809F0BB0B802DBF01F0
:101DF000FF2793585F4F2AF09E3F510568F0B6C009
:101E000000C15F3FECF3983EDCF3869577956795CC
:101E1000B795F7959F5FC9F7880F911D96958795A0
:101E200097F90895E1E0660F771F881FBB1F6217BF
:101E300073078407BA0720F0621B730B840BBA0B7D
:101E4000EE1F88F7E095089504D06894B111D9C0C9
:101E50000895BCD088F09F5790F0B92F9927B751BB
:101E6000A0F0D1F0660F771F881F991F1AF0BA955E
:101E7000C9F712C0B13081F0C3D0B1E00895C0C03D
:101E8000672F782F8827B85F39F0B93FCCF3869554
:101E900077956795B395D9F73EF4909580957095B1
:101EA00061957F4F8F4F9F4F0895E89409C097FB2E
:101EB0003EF490958095709561957F4F8F4F9F4F21
:101EC0009923A9F0F92F96E9BB279395F695879565
:101ED00077956795B795F111F8CFFAF4BB0F11F428
:101EE00060FF1BC06F5F7F4F8F4F9F4F16C08823CF
:101EF00011F096E911C0772321F09EE8872F762F05
:101F000005C0662371F096E8862F70E060E02AF045
:101F10009A95660F771F881FDAF7880F9695879531
:101F200097F90895990F0008550FAA0BE0E8FEEF06
:101F300016161706E807F907C0F012161306E4078D
:101F4000F50798F0621B730B840B950B39F40A2686
:101F500061F0232B242B252B21F408950A2609F464
:101F6000A140A6958FEF811D811D089597F99F6768
:101F700080E870E060E008959FEF80EC0895002411
:101F80000A941616170618060906089500240A94DE
:101F900012161306140605060895092E0394000C64
:101FA00011F4882352F0BB0F40F4BF2B11F460FFF3
:101FB00004C06F5F7F4F8F4F9F4F089557FD90581C
:101FC000440F551F59F05F3F71F04795880F97FBFD
:101FD000991F61F09F3F79F08795089512161306B7
:101FE0001406551FF2CF4695F1DF08C016161706E6
:101FF0001806991FF1CF869571056105089408951B
:10200000E894BB2766277727CB0197F908958ADFE5
:1020100008F48FEF08950BD0C0CFB1DF28F0B6DF02
:1020200018F0952309F0A2CFA7CF1124EACFC6DF7D
:10203000A0F3959FD1F3950F50E0551F629FF001DB
:10204000729FBB27F00DB11D639FAA27F00DB11D34
:10205000AA1F649F6627B00DA11D661F829F2227BD
:10206000B00DA11D621F739FB00DA11D621F839F44
:10207000A00D611D221F749F3327A00D611D231F1A
:10208000849F600D211D822F762F6A2F11249F5768
:1020900050408AF0E1F088234AF0EE0FFF1FBB1F8B
:1020A000661F771F881F91505040A9F79E3F51052A
:1020B00070F05CCFA6CF5F3FECF3983EDCF38695E3
:1020C00077956795B795F795E7959F5FC1F7FE2BD5
:1020D000880F911D9695879597F90895AA1BBB1BAC
:1020E00051E107C0AA1FBB1FA617B70710F0A61B18
:1020F000B70B881F991F5A95A9F780959095BC0139
:10210000CD0108950790F691E02D1994FB019F01F0
:10211000E8944230BCF04532ACF44A3029F497FBE5
:102120001EF4909581959F4F642F7727D7DF805DB0
:102130008A330CF0895D8193CB010097A9F716F4DF
:102140005DE251931082C90100C0DC01FC01672FE0
:1021500071917723E1F7329704C07C916D9370837E
:0E2160006291AE17BF07C8F30895F894FFCF41
:10216E000123003C000103001E000A003025643AE2
:10217E0025643A25640030303A30303A3030003041
:10218E0025643A3025643A302564003025643A30AF
:10219E0025643A2564003025643A25643A30256476
:1021AE00004B65797061642025620053544152548E
:1021BE002050484F544F0053544F502050484F54C6
:1021CE004F00535441525420494E43554241544FAF
:1021DE00520053544F5020494E43554241544F5292
:1021EE00005245534554004E6F74206F6B61790059
:1021FE0054413A25664320202054533A2566430025
:10220E00543A2566432052483A256625004F6666A5
:0A221E002074696D653A2025640004
:00000001FF
