S0110000496E63756261746F722E737265636C
S113000072C00000A0C000009EC000009CC00000A0
S11300109AC0000098C0000096C0000094C0000080
S113002092C0000090C000008EC000008CC0000090
S11300308AC0000088C0000086C0000084C00000A0
S113004082C0000080C000007EC000007CC00000B0
S11300507AC0000078C0000076C0000074C00000C0
S113006072C0000070C000006EC000006CC00000D0
S11300706AC0000068C0000066C0000064C00000E0
S113008062C0000060C000005EC000005CC00000F0
S11300905AC0000058C0000056C0000054C0000000
S11300A052C0000050C000004EC000004CC0000010
S11300B04AC0000048C0000046C0000036C6000028
S11300C042C0000040C000003EC000003CC0000030
S11300D03AC0000038C0000036C0000034C0000040
S11300E032C000000F0911241FBECFEFD1E2DEBFE2
S11300F0CDBF00E00CBF12E0A0E0B2E0E4E9F9E11A
S113010000E00BBF02C007900D92AC39B107D9F7DC
S113011022E0ACE9B2E001C01D92AC3CB207E1F7C9
S113012010E0C6EED0E000E006C022970109FE010F
S11301300BBF0E94950CC43ED10780E00807A9F7C5
S1130140D3D70C94C80C5CCF25B144B181E090E0C6
S1130150BC0102C0660F771F2A95E2F79B01242B8E
S113016024B935B124B102C0880F991F3A95E2F73A
S1130170822B84B908952F9A08952C9A08952F9864
S113018008952C98089595ED9A95F1F70000882329
S113019014F4A59A01C0A59886FF02C0739A01C001
S11301A0739885FF06C0E2E0F1E090819860908347
S11301B005C0E2E0F1E09081977F908384FF06C060
S11301C0E2E0F1E090819061908305C0E2E0F1E02B
S11301D090819F7E9083E2E0F1E090819062908331
S11301E090819F7D908383FF02C0A59A01C0A5984A
S11301F082FF02C0739A01C0739881FF06C0E2E0D7
S1130200F1E090819860908305C0E2E0F1E0908194
S1130210977F908380FF06C0E2E0F1E080818061F7
S1130220808305C0E2E0F1E080818F7E8083E2E09C
S1130230F1E080818062808380818F7D8083089556
S1130240E2E0F1E080818F7B808381E09CDF8FE3BB
S11302509FE10197F1F700C000000895CF93DF9369
S1130260EC01E2E0F1E0808180648083888188236E
S113027029F0219688DF89918111FCCFDF91CF91FC
S11302800895E2E0F1E09081906490837CCFE2E015
S1130290F1E090819F7B9083611102C0805873CFFD
S11302A0613011F480546FCF623011F48C566BCFEF
S11302B08C5269CFE1E0F1E08081806480838081A9
S11302C0806280839D9A6B9A80818860808380811C
S11302D080618083E2E0F1E080818F7B8083808194
S11302E08F7D80838FE59AEE0197F1F700C00000BF
S11302F08081806180838081886080837398A598E1
S113030080818062808380818F7D80838FE19EE401
S11303100197F1F700C000008081806280838081B2
S11303208F7D80838FE193E00197F1F700C0000097
S113033080818062808380818F7D80838FE193E0E0
S11303400197F1F700C0000080818F7E8083808157
S1130350886080837398A59880818062808380817F
S11303608F7D808388E20FDF8EE00DDF69DF86E01A
S11303700ACFCF93DF9300D000D0CDB7DEB7AB0167
S1130380BE016F5F7F4F0E94990CCE01019666DF1C
S113039026960FB6F894DEBF0FBECDBFDF91CF9186
S11303A008954F925F926F927F92AF92BF92CF92D5
S11303B0DF92EF92FF920F931F93CF93DF93CDB70A
S11303C0DEB78A89EB88FC88813021F460E080E024
S11303D05EDF11C0823021F461E080E058DF0BC0A1
S11303E0833021F462E080E052DF05C0843019F4E8
S11303F063E080E04CDF6E0185E1C80ED11CF7019B
S11304008081882309F4B2C0853209F098C087013D
S11304100F5F1F4FF7018181863609F449C030F41C
S1130420823661F0843609F086C020C0833751F1EA
S1130430883781F08F3609F07EC071C07601F2E012
S1130440EF0EF11C62E070E0F6018081918191DF92
S1130450670184C07601F2E0EF0EF11C60E170E008
S1130460F6018081918185DF670178C07601F2E031
S1130470EF0EF11C6AE070E0F6018081918179DF72
S113048067016CC0F60182E0C80ED11C0190F081B6
S1130490E02D8081882309F461C07F019FEFE91A70
S11304A0F90AEFDEF70181917F018111FACF56C07D
S11304B05601F4E0AF0EB11CF60140805180628019
S11304C07380C301B2010E945F0B6B017C0188271A
S11304D077FD8095982F0E94920B9B01AC01C3017C
S11304E0B2010E94920A20E030E44CE156E40E94FA
S11304F01E0C0E945F0B662E772E6AE070E0C60128
S113050038DF8EE2BEDE862D972D99231CF491955B
S1130510819591096AE070E02CDF65011FC07601C6
S1130520F2E0EF0EF11C68E070E0F6018081918149
S113053020DF670113C085E2A4DE87010FC0893084
S113054021F480E29EDE870109C08A3029F461E04B
S113055080E09DDE870102C094DE87017801FFEF11
S1130560EF1AFF0AF801818181114ECFDF91CF91FB
S11305701F910F91FF90EF90DF90CF90BF90AF90BD
S11305807F906F905F904F90089587B1826887B98C
S113059087B1886287B981B18A7A81B988B18A6A58
S11305A088B982B1856582B908954198439A459A7C
S11305B0479A8FE59AEE0197F1F700C0000006997B
S11305C061C0319B30C05EC0319B30C05DC0319B87
S11305D030C05CC0319B30C05BC0339B30C068C04E
S11305E0339B30C067C0339B30C066C0339B30C080
S11305F065C0359B30C072C0359B30C071C0359B1F
S113060030C070C0359B30C06FC0379B30C07CC0D9
S1130610379B30C07BC0379B30C07AC037997AC0D3
S113062020E130E02CC021E030E029C024E030E0BB
S113063026C027E030E023C02CE030E020C022E0D8
S113064030E01DC025E030E01AC028E030E017C0DB
S113065020E030E014C023E030E011C026E030E0B8
S11306600EC029E030E00BC02BE030E008C02DE0E4
S113067030E005C02EE030E002C02FE030E0822FF1
S1130680932F0895049BA0CF029BA1CF009BA2CFE0
S1130690419A8FE19EE40197F1F700C0000043986E
S11306A08FE59AEE0197F1F700C00000069B95CF05
S11306B0049B96CF029B97CF009B98CF439A8FE1E0
S11306C09EE40197F1F700C0000045988FE59AEE8B
S11306D00197F1F700C00000069B8BCF049B8CCFE1
S11306E0029B8DCF009B8ECF459A8FE19EE40197AC
S11306F0F1F700C0000047988FE59AEE0197F1F7F3
S113070000C00000069B81CF049B82CF029B83CF55
S1130710009B84CF479A8FE19EE40197F1F700C0D4
S113072000008AE090E090930402809303022AE0A0
S113073030E0A5CF4198439845984798069B0BC055
S1130740049B0CC0029B0DC090B181E08927282F27
S1130750217030E008C021E030E005C021E030E045
S113076002C021E030E0822F932F0895E3DF019748
S113077051F420910302309104022A30310519F01A
S1130780822F932F089511DF9C019093040280938C
S11307900302F6CFEAE7F0E0808180688083ACE76B
S11307A0B0E08C9180648C938C91807E8C9380815A
S11307B0866080838081816080838081806480837F
S11307C0808186FDFDCFEAE7F0E080818F7780832A
S11307D00895ECE7F0E090818770987F982B9083E0
S11307E0EAE7F0E08081806C8083808186FDFDCF24
S11307F02091780030917900822F932F08951F93D0
S1130800CF93DF9360E083E042DD8091A9028F9370
S11308108091A8028F93C1E9D2E0DF93CF9315E0D2
S11308201F93BFDD60E08BE032DD8091A7028F93E0
S11308308091A6028F93DF93CF931F93B2DD61E083
S113084083E025DD8091A5028F938091A4028F938C
S113085088E992E09F938F931F93A3DD8091C80250
S11308609091C9022DB73EB7215F3F4F0FB6F89460
S11308703EBF0FBE2DBF892B09F0E0C08091CA0294
S11308809091CB02892B09F0D9C0809101029091FB
S11308900202892B09F4C7C0D1C08091CA02909189
S11308A0CB020A970CF0D1C0809101029091020210
S11308B00A970CF4D2C0C9C08091CA029091CB02AD
S11308C00A970CF4ECC00EC18091010290910202CF
S11308D00A970CF40FC130C1809101029091020279
S11308E00A970CF431C153C14091010250910202A4
S11308F02091CA023091CB028091C8029091C90222
S11309005F934F933F932F939F938F9385E292E04E
S11309109F938F9383E08F9344DD8DB79EB70996A1
S11309200FB6F8949EBF0FBE8DBF73C080910102B5
S1130930909102020A971CF5409101025091020223
S11309402091CA023091CB028091C8029091C902D1
S11309505F934F933F932F939F938F9380E392E002
S11309609F938F9383E08F931CDD2DB73EB7275F52
S11309703F4F0FB6F8943EBF0FBE2DBF4AC08091C3
S1130980C8029091C9020A9714F54091010250914E
S113099002022091CA023091CB028091C802909148
S11309A0C9025F934F933F932F939F938F9385E057
S11309B092E09F938F9383E08F93F3DC8DB79EB780
S11309C009960FB6F8949EBF0FBE8DBF22C040910A
S11309D00102509102022091CA023091CB0280910F
S11309E0C8029091C9025F934F933F932F939F93B3
S11309F08F9386E092E09F938F9383E08F93D1DC73
S1130A002DB73EB7275F3F4F0FB6F8943EBF0FBEDA
S1130A102DBF8091B702882309F4C1C064E080919E
S1130A20B80235DCBCC08FE092E09F938F9383E0E3
S1130A308F93B7DC0F900F900F90EBCF8091C8028B
S1130A409091C9020A970CF428CF8091C802909122
S1130A50C9020A970CF430CF45C04091010250916D
S1130A6002022091CA023091CB028091C802909177
S1130A70C9025F934F933F932F939F938F9388E182
S1130A8092E09F938F9383E08F938BDC8DB79EB717
S1130A9009960FB6F8949EBF0FBE8DBFBACF409192
S1130AA00102509102022091CA023091CB0280913E
S1130AB0C8029091C9025F934F933F932F939F93E2
S1130AC08F9384E292E09F938F9383E08F9369DC0A
S1130AD02DB73EB7275F3F4F0FB6F8943EBF0FBE0A
S1130AE02DBF97CF8091C8029091C9020A970CF448
S1130AF0EBCE22C040910102509102022091CA0221
S1130B003091CB028091C8029091C9025F934F93B8
S1130B103F932F939F938F938FE292E09F938F93B2
S1130B2083E08F933EDC8DB79EB709960FB6F89499
S1130B309EBF0FBE8DBF6DCF8091CA029091CB0234
S1130B400A970CF4C9CE23C04091010250910202CD
S1130B502091CA023091CB028091C8029091C902BF
S1130B605F934F933F932F939F938F9389E192E0E9
S1130B709F938F9383E08F9314DC2DB73EB7275F49
S1130B803F4F0FB6F8943EBF0FBE2DBF42CF8091AA
S1130B90CA029091CB020A970CF0C8CEA5CEDF9181
S1130BA0CF911F9108952091BA023091BB02ECEBD2
S1130BB0F2E0D901AA0FBB1FAE0FBF1F8D939C9308
S1130BC02F5F3F4F3093BB022093BA028081918103
S1130BD0880F991F9C01220F331F220F331F820F8E
S1130BE0931F2091BE023091BF02820F931F9093F6
S1130BF0C9028093C8029093C9028093C80280916D
S1130C00C8029091C902992334F08091C80290914E
S1130C10C902489754F01092BB021092BA028FEFA7
S1130C209FEF9093B9028093B802E0ECF2E08081E8
S1130C309181880F991F9C01220F331F220F331FAC
S1130C40820F931F2091C2023091C302820F931F1F
S1130C509093CB028093CA028091CA029091CB02F6
S1130C60CC9734F48091CA029091CB02992334F446
S1130C7082E090E09093BB028093BA02E4ECF2E04D
S1130C8080819181880F991F9C01220F331F220FAD
S1130C90331F820F931F2091C6023091C702820F27
S1130CA0931F90930202809301028091010290911C
S1130CB00202CC9734F480910102909102029923AC
S1130CC03CF484E090E09093BB028093BA0211C09C
S1130CD08091BA029091BB028230910539F483E08D
S1130CE090E09093B9028093B802089584309105FE
S1130CF039F486E090E09093B9028093B8020895A5
S1130D002091B8023091B9022F5F3F4F3093B9025E
S1130D102093B802069741F41092BB021092BA02D3
S1130D201092B9021092B80208951F920F920FB652
S1130D300F9211248F93109225011092240181E0C7
S1130D408093AE028F910F900FBE0F901F90189555
S1130D50CF938091060184FDADC08091AC028111D6
S1130D60A9C0ABC041E050E069E070E08DE992E0D9
S1130D7070D207C040E050E069E070E08DE992E095
S1130D8068D27F99BFC08091B3028111BBC0AAC051
S1130D9081E08093B40262E370E08EE992E0F6D2DF
S1130DA081E08093B30202C01092B30280910601E5
S1130DB080FDBEC08091B2028111BAC0A6C010925B
S1130DC0B2027D99F3C08091B1028111EFC0B5C028
S1130DD01092B1028091B602811127C08091B502B0
S1130DE0882319F18EE992E0DBD21092B50280EAF1
S1130DF092E033D340E050E066E070E08DE992E0A9
S1130E0028D240E050E06CE070E08DE992E021D21D
S1130E1040E050E06BE070E08DE992E01AD28CE99A
S1130E2092E0ADD98CE992E0ACD97E99F3C080917F
S1130E30B0028111EFC0BDC01092B00280910601D2
S1130E4081FDEBC08091AF028111E7C0EBC08091BE
S1130E500002882309F4F7C01092AB0281E080936A
S1130E60AA028093B5028093B60262E370E08EE931
S1130E7092E08CD21092B70268EE73E080EA92E0BE
S1130E803CD341E050E066E070E08DE992E0E1D1CE
S1130E9041E050E06CE070E08DE992E0DAD141E0AD
S1130EA050E06BE070E08DE992E0D3D1CCC01092B9
S1130EB0AF02C9C01092AC0264CFC1E0C093AC02CF
S1130EC08AE392E09F938F9384E08F936ADA809110
S1130ED0AD02C827C093AD020F900F900F90C111BF
S1130EE041CF48CF89E492E09F938F9384E08F931E
S1130EF058DA0F900F900F9080910002882309F424
S1130F004FCF46CF7F9B52CF4FCF85E592E09F9343
S1130F108F9384E08F9345DA1092B4028EE992E0C5
S1130F203FD281E08093B2020F900F900F9049CF8F
S1130F308091060180FD43CF44CF80E692E09F93E9
S1130F408F9384E08F932DDA8CE992E014D98CE9A5
S1130F5092E013D9C1E0C093B502C093B60262E334
S1130F6070E08EE992E012D21092B70268EE73E05C
S1130F7080EA92E0C2D241E050E066E070E08DE9A0
S1130F8092E067D141E050E06CE070E08DE992E0DE
S1130F9060D141E050E06BE070E08DE992E059D11E
S1130FA0C093B1020F900F900F9014CF7D9910CF82
S1130FB011CF80E792E09F938F9384E08F93F1D9D0
S1130FC01092B5028EE992E0EBD180EA92E045D22C
S1130FD081E08093B00240E050E066E070E08DE98B
S1130FE092E037D140E050E06CE070E08DE992E0AF
S1130FF030D140E050E06BE070E08DE992E029D11F
S11310008CE992E0BCD88CE992E0BBD80F900F90A9
S11310100F9014CF7E9910CF11CF8091060181FFDC
S113102046CF11C08FE792E09F938F9384E08F9314
S1131030B8D981E08093AF020F900F900F90809108
S1131040AB02811104CFCF9108958091AE02882321
S113105009F449C01092AE028091010290910202FB
S11310600197909302028093010280910102909172
S113107002029923C4F58091CA029091CB02019790
S11310809093CB028093CA028BE390E09093020288
S1131090809301028091CA029091CB0299231CF59E
S11310A08091C8029091C90201979093C9028093DC
S11310B0C8028BE390E09093CB028093CA028091A4
S11310C0C8029091C902992374F4109202021092FA
S11310D001021092CB021092CA021092C90210921D
S11310E0C8021092B6020895789454DB4EDAE2D81E
S11310F0A7D88DE992E098D060EA7FE08EE992E08B
S113110040D18CE992E020D865E070E080EA92E07A
S1131110A0D180EA92E0C9D18091A7028F938091F7
S1131120A6028F938091A9028F938091A8028F9336
S113113085E892E09F938F9381E08F9332D98091D9
S1131140A5028F938091A4028F9385E992E09F93E7
S11311508F9382E08F9325D98FE092E09F938F93B2
S113116083E08F931ED98DB79EB70F960FB6F89470
S11311709EBF0FBE8DBFECDD80E02BDBBC0188275A
S113118077FD8095982FCED220E030E040E85AE3F6
S113119055D320E030E048EC52E450D390D28EE9AD
S11311A092E0FCD081E015DB9093A9028093A80221
S11311B083E00FDB9093A7028093A6028091B5028F
S11311C0811143DF1CDB8091AD028823A1F2CEDACA
S11311D0282F392F8091A2029091A3022817390752
S11311E009F4C9CF3093A3022093A20233230CF451
S11311F0C2CF2A3031055CF02D30310509F0BBCF68
S11312009091B70281E089278093B702B4CF80918F
S1131210B702882309F4AFCFC901C5DCACCF109263
S11312209F0210929E020895EAE0F1E080818460BA
S113123080838081806180839A9A989A8081806477
S113124080830B9A099A0D9A389A3C9A0F9A3E9A7F
S113125008956630710509F46AC0A4F4623071051A
S113126009F44BC044F46115710599F161307105BD
S113127009F086C020C06430710509F44AC00CF03E
S113128042C035C06930710509F463C04CF467305D
S1131290710509F452C06830710509F071C053C07A
S11312A06B30710509F461C00CF459C06C307105E0
S11312B009F066C060C0452B31F0EBE0F1E08081BD
S11312C0846080830895EBE0F1E080818B7F8083EC
S11312D00895452B31F0EBE0F1E08081806180835B
S11312E00895EBE0F1E080818F7E80830895452BA3
S11312F011F0A29A0895A2980895452B11F0A29A8C
S11313000895A2980895452B11F0A09A0895A098E5
S11313100895452B31F0EBE0F1E080818064808317
S11313200895EBE0F1E080818F7B80830895452B65
S113133011F0139A089513980895452B11F0159AF6
S1131340089515980895452B11F0119A0895119850
S11313500895452B11F0409A089540980895452B1F
S113136011F0449A089544980895452B11F0179A62
S1131370089517980895452B11F0469A08954698B4
S1131380089517D0269A259A2D9808952E9AE7EA5B
S1131390F1E63197F1F700C0000054C028C0089569
S11313A053D087EA91E60197F1F700C000002E9828
S11313B00895E0E8F0E02081206820832081226005
S11313C02083E1E8F0E020812861208320812260ED
S11313D0208320ED37E0FC013183208330938700A4
S11313E02093860010928900109288000895CF926D
S11313F0DF92EF92FF92CF93DF93EC01882777FD82
S11314008095982F8FD120E030E048EC52E4EFD063
S11314106B017C0168817981882777FD8095982FFD
S113142081D19B01AC01C701B60108D24DD17093A3
S1131430890060938800DF91CF91FF90EF90DF9057
S1131440CF900895D4CF0895109289001092880007
S11314500895FC01718360830895FC01808191816A
S11314608330910581F01CF40197F1F406C08430B7
S1131470910579F00597C1F412C0E1E8F0E08081AC
S1131480887F80830895E1E9F0E08081887F80830C
S11314900895E1EAF0E08081887F80830895E1E2A5
S11314A0F1E08081887F80830895FC0180819181AF
S11314B08330910581F01CF40197F1F406C0843067
S11314C0910579F00597C1F412C0EFE6F0E0808150
S11314D0826080830895E1E7F0E080818260808308
S11314E00895E2E7F0E08081826080830895E3E775
S11314F0F0E08081826080830895882777FD80955D
S1131500982F10D120E030E04AE751E497D1D7D0AA
S11315107093290160932801E1E2F1E08081856004
S1131520808308955058BB27AA270ED04DC13ED1C1
S113153030F043D120F031F49F3F11F41EF433C155
S11315400EF4E095E7FB29C1E92F4FD180F3BA17D8
S1131550620773078407950718F071F49EF567C155
S11315600EF4E0950B2EBA2FA02D0B01B9019001BA
S11315700C01CA01A0011124FF27591B99F0593FFE
S113158050F4503E68F11A16F040A22F232F342F46
S11315904427585FF3CF469537952795A795F04094
S11315A05395C9F77EF41F16BA0B620B730B840BA9
S11315B0BAF09150A1F0FF0FBB1F661F771F881F61
S11315C0C2F70EC0BA0F621F731F841F48F48795B9
S11315D077956795B795F7959E3F08F0B3CF9395A8
S11315E0880F08F09927EE0F9795879508950CD0EA
S11315F0EBC0E3D040F0DAD030F021F45F3F19F0D3
S1131600CCC0511115C1CFC0F0D098F39923C9F3C0
S11316105523B1F3951B550BBB27AA2762177307F4
S1131620840738F09F5F5F4F220F331F441FAA1FA8
S1131630A9F333D00E2E3AF0E0E830D09150504068
S1131640E695001CCAF729D0FE2F27D0660F771F16
S1131650881FBB1F261737074807AB07B0E809F0F8
S1131660BB0B802DBF01FF2793585F4F2AF09E3F8D
S1131670510568F092C0DCC05F3FECF3983EDCF3A8
S1131680869577956795B795F7959F5FC9F7880F06
S1131690911D9695879597F90895E1E0660F771F58
S11316A0881FBB1F621773078407BA0720F0621BE9
S11316B0730B840BBA0BEE1F88F7E095089504D0E2
S11316C06894B111B5C0089598D088F09F5790F0F0
S11316D0B92F9927B751A0F0D1F0660F771F881F53
S11316E0991F1AF0BA95C9F712C0B13081F09FD092
S11316F0B1E008959CC0672F782F8827B85F39F030
S1131700B93FCCF3869577956795B395D9F73EF4B1
S113171090958095709561957F4F8F4F9F4F089559
S1131720E89409C097FB3EF4909580957095619577
S11317307F4F8F4F9F4F9923A9F0F92F96E9BB272D
S11317409395F695879577956795B795F111F8CFA9
S1131750FAF4BB0F11F460FF1BC06F5F7F4F8F4F14
S11317609F4F16C0882311F096E911C0772321F00A
S11317709EE8872F762F05C0662371F096E8862FA2
S113178070E060E02AF09A95660F771F881FDAF7F9
S1131790880F9695879597F9089597F99F6780E83C
S11317A070E060E008959FEF80EC089500240A94AF
S11317B01616170618060906089500240A94121628
S11317C01306140605060895092E0394000C11F45B
S11317D0882352F0BB0F40F4BF2B11F460FF04C008
S11317E06F5F7F4F8F4F9F4F089557FD9058440F61
S11317F0551F59F05F3F71F04795880F97FB991F6C
S113180061F09F3F79F08795089512161306140628
S1131810551FF2CF4695F1DF08C0161617061806B5
S1131820991FF1CF86957105610508940895E89490
S1131830BB2766277727CB0197F908950BD0C4CF30
S1131840B5DF28F0BADF18F0952309F0A6CFABCFA7
S11318501124EECFCADFA0F3959FD1F3950F50E08A
S1131860551F629FF001729FBB27F00DB11D639F4E
S1131870AA27F00DB11DAA1F649F6627B00DA11DF4
S1131880661F829F2227B00DA11D621F739FB00D9A
S1131890A11D621F839FA00D611D221F749F33270A
S11318A0A00D611D231F849F600D211D822F762FA3
S11318B06A2F11249F5750408AF0E1F088234AF0A0
S11318C0EE0FFF1FBB1F661F771F881F91505040EC
S11318D0A9F79E3F510570F060CFAACF5F3FECF3AC
S11318E0983EDCF3869577956795B795F795E795D8
S11318F09F5FC1F7FE2B880F911D9695879597F9E9
S11319000895AA1BBB1B51E107C0AA1FBB1FA61742
S1131910B70710F0A61BB70B881F991F5A95A9F794
S113192080959095BC01CD0108950790F691E02D26
S11319301994FB019F01E8944230BCF04532ACF4A9
S11319404A3029F497FB1EF4909581959F4F642F9C
S11319507727D7DF805D8A330CF0895D8193CB01D3
S11319600097A9F716F45DE251931082C90100C0F3
S1131970DC01FC01672F71917723E1F7329704C0F2
S11319807C916D9370836291AE17BF07C8F308957D
S1071990F894FFCFF5
S1131994011E000A003025643A25643A25640030A7
S11319A4303A30303A3030003025643A3025643AE5
S11319B4302564003025643A3025643A25640030C7
S11319C425643A25643A302564004B455950414412
S11319D420454E41424C45440053544152542050F6
S11319E4484F544F0053544F502050484F544F00C5
S11319F4535441525420494E43554241544F52008A
S1131A0453544F5020494E43554241544F5200526F
S1131A14455345540054413A2564432020205453EB
S10F1A243A2564430052483A256425002A
S9030000FC
