S0110000496E63756261746F722E737265636C
S113000072C00000A1C000009FC000009DC000009D
S11300109BC0000099C0000097C0000095C000007C
S113002093C0000091C000008FC000008DC000008C
S11300308BC0000089C0000087C0000085C000009C
S113004083C0000081C000007FC000007DC00000AC
S11300507BC0000079C0000077C0000075C00000BC
S113006073C0000071C000006FC000006DC00000CC
S11300706BC0000069C0000067C0000065C00000DC
S11300809CC6000061C000005FC000005DC00000AD
S11300905BC0000059C0000057C0000055C00000FC
S11300A053C0000051C000004FC000004DC000000C
S11300B04BC0000049C0000047C000006BC60000F0
S11300C043C0000041C000003FC000003DC000002C
S11300D03BC0000039C0000037C0000035C000003C
S11300E033C00000970A11241FBECFEFD1E2DEBF58
S11300F0CDBF00E00CBF12E0A0E0B2E0E6E3FDE11A
S113010000E00BBF02C007900D92AC3AB107D9F7DB
S113011022E0ACEAB2E001C01D92A13EB207E1F7D1
S113012010E0C6EED0E000E006C022970109FE010F
S11301300BBF0E94660EC43ED10780E00807A9F7F2
S11301400E9459090C94990E5BCF25B144B181E00A
S113015090E0BC0102C0660F771F2A95E2F79B016D
S1130160242B24B935B124B102C0880F991F3A95C4
S1130170E2F7822B84B984B1806984B908952F9AF7
S113018085B1806985B908952C9A08952F9885B111
S11301908F7685B908952C98089595ED9A95F1F781
S11301A00000882314F4A59A01C0A59886FF02C014
S11301B0739A01C0739885FF06C0E2E0F1E0908174
S11301C09860908305C0E2E0F1E09081977F90838E
S11301D084FF06C0E2E0F1E090819061908305C065
S11301E0E2E0F1E090819F7E9083E2E0F1E0908193
S11301F09062908390819F7D908383FF02C0A59A33
S113020001C0A59882FF02C0739A01C0739881FF50
S113021006C0E2E0F1E090819860908305C0E2E0DE
S1130220F1E09081977F908380FF06C0E2E0F1E0E7
S113023080818061808305C0E2E0F1E080818F7E6F
S11302408083E2E0F1E080818062808380818F7D21
S113025080830895E2E0F1E080818F7B808381E0F8
S11302609CDF8FE39FE10197F1F700C00000089540
S1130270CF93DF93EC01E2E0F1E08081806480833E
S11302808881882329F0219688DF89918111FCCF08
S1130290DF91CF910895E2E0F1E090819064908342
S11302A07CCFE2E0F1E090819F7B9083611102C0FA
S11302B0805873CF613011F480546FCF623011F4E1
S11302C08C566BCF8C5269CFE1E0F1E08081806481
S11302D080838081806280839D9A6B9A808188600C
S11302E08083808180618083E2E0F1E080818F7B84
S11302F0808380818F7D80838FE59AEE0197F1F76B
S113030000C0000080818061808380818860808358
S11303107398A59880818062808380818F7D80839B
S11303208FE19EE40197F1F700C0000080818062B4
S1130330808380818F7D80838FE193E00197F1F743
S113034000C0000080818062808380818F7D8083F3
S11303508FE193E00197F1F700C0000080818F7E68
S113036080838081886080837398A598808180626F
S1130370808380818F7D808388E20FDF8EE00DDFB4
S113038069DF86E00ACFCF93DF9300D000D0CDB7EA
S1130390DEB7AB01BE016F5F7F4F0E946A0ECE01D4
S11303A0019666DF26960FB6F894DEBF0FBECDBF6A
S11303B0DF91CF9108954F925F926F927F92AF92A7
S11303C0BF92CF92DF92EF92FF920F931F93CF933E
S11303D0DF93CDB7DEB78A89EB88FC88813021F4BE
S11303E060E080E05EDF11C0823021F461E080E0F3
S11303F058DF0BC0833021F462E080E052DF05C097
S1130400843019F463E080E04CDF6E0185E1C80EAE
S1130410D11CF7018081882309F4B2C0853209F028
S113042098C087010F5F1F4FF7018181863609F459
S113043049C030F4823661F0843609F086C020C0A9
S1130440833751F1883781F08F3609F07EC071C04F
S11304507601F2E0EF0EF11C62E070E0F6018081BB
S1130460918191DF670184C07601F2E0EF0EF11C07
S113047060E170E0F6018081918185DF670178C0D9
S11304807601F2E0EF0EF11C6AE070E0F601808183
S1130490918179DF67016CC0F60182E0C80ED11C3E
S11304A00190F081E02D8081882309F461C07F01EF
S11304B09FEFE91AF90AEFDEF70181917F018111BB
S11304C0FACF56C05601F4E0AF0EB11CF6014080DD
S11304D0518062807380C301B2010E94080D6B01D8
S11304E07C01882777FD8095982F0E943B0D9B0106
S11304F0AC01C301B2010E94370C20E030E048ECAB
S113050052E40E94EF0D0E94080D662E772E6AE0D9
S113051070E0C60138DF8EE2BEDE862D972D99236A
S11305201CF49195819591096AE070E02CDF6501D6
S11305301FC07601F2E0EF0EF11C68E070E0F601F6
S11305408081918120DF670113C085E2A4DE8701E9
S11305500FC0893021F480E29EDE870109C08A3011
S113056029F461E080E09DDE870102C094DE87010A
S11305707801FFEFEF1AFF0AF801818181114ECF54
S1130580DF91CF911F910F91FF90EF90DF90CF906B
S1130590BF90AF907F906F905F904F90089587B118
S11305A0826887B987B1886287B981B18A7A81B94B
S11305B088B18A6A88B982B1856582B908954198FB
S11305C0439A459A479A8FE59AEE0197F1F700C04E
S11305D00000069961C0319B30C05EC0319B30C0C1
S11305E05DC0319B30C05CC0319B30C05BC0339B6D
S11305F030C068C0339B30C067C0339B30C066C016
S1130600339B30C065C0359B30C072C0359B30C051
S113061071C0359B30C070C0359B30C06FC0379BF4
S113062030C07CC0379B30C07BC0379B30C07AC0A1
S113063037997AC020E130E02CC021E030E029C0B5
S113064024E030E026C027E030E023C02CE030E096
S113065020C022E030E01DC025E030E01AC028E0D0
S113066030E017C020E030E014C023E030E011C0D7
S113067026E030E00EC029E030E00BC02BE030E093
S113068008C02DE030E005C02EE030E002C02FE0CD
S113069030E0822F932F0895049BA0CF029BA1CF1B
S11306A0009BA2CF419A8FE19EE40197F1F700C02D
S11306B0000043988FE59AEE0197F1F700C000001F
S11306C0069B95CF049B96CF029B97CF009B98CF18
S11306D0439A8FE19EE40197F1F700C0000045982A
S11306E08FE59AEE0197F1F700C00000069B8BCFCF
S11306F0049B8CCF029B8DCF009B8ECF459A8FE1BC
S11307009EE40197F1F700C0000047988FE59AEE48
S11307100197F1F700C00000069B81CF049B82CFB4
S1130720029B83CF009B84CF479A8FE19EE401977D
S1130730F1F700C000008AE090E090930B028093F0
S11307400A022AE030E0A5CF41984398459847989B
S1130750069B0BC0049B0CC0029B0DC090B181E0B2
S11307608927282F217030E008C021E030E005C03F
S113077021E030E002C021E030E0822F932F089581
S1130780E3DF019751F420910A0230910B022A30E1
S1130790310519F0822F932F089511DF9C01909356
S11307A00B0280930A02F6CFEAE7F0E080818068CA
S11307B08083ACE7B0E08C9180648C938C91807ED4
S11307C08C93808186608083808181608083808136
S11307D080648083808186FDFDCFEAE7F0E080813C
S11307E08F7780830895ECE7F0E090818770987F9D
S11307F0982B9083EAE7F0E08081806C808380818D
S113080086FDFDCF2091780030917900822F932FBF
S11308100895CADFC4DE58DD1DDD8DEA92E08CD672
S113082060EA7FE08EEA92E034D78CEA92E08DDCD5
S113083065E070E082EB92E094D782EB92E0BDD762
S113084063E070E080EB92E08CD780EB92E0B5C778
S11308501F93CF93DF9360E083E023DD8091BE029A
S11308608F938091BD028F938091BC028F9380916E
S1130870BB028F93C3E9D2E0DF93CF9315E01F93BC
S11308809ADD60E08DE00DDD8091BA028F93809156
S1130890B9028F938091B8028F938091B7028F939E
S11308A0DF93CF931F9387DD61E083E0FADC8091CF
S11308B0C0028F938091BF028F938AE992E09F9345
S11308C08F931F9378DD8091DF029091E0022DB722
S11308D03EB72D5E3F4F0FB6F8943EBF0FBE2DBFFF
S11308E0892B09F0E0C08091060290910702892BC0
S11308F009F0D9C08091080290910902892B09F46A
S1130900C7C0D1C080910602909107020A970CF0EB
S1130910D1C080910802909109020A970CF4D2C0C8
S1130920C9C080910602909107020A970CF4ECC0AA
S11309300EC180910802909109020A970CF40FC12C
S113094030C180910802909109020A970CF431C1D8
S113095053C140910802509109022091060230913E
S113096007028091DF029091E0025F934F933F93DF
S11309702F939F938F938CE292E09F938F9383E0C6
S11309808F9319DD8DB79EB709960FB6F8949EBF65
S11309900FBE8DBF73C080910802909109020A971F
S11309A01CF54091080250910902209106023091F1
S11309B007028091DF029091E0025F934F933F938F
S11309C02F939F938F9387E392E09F938F9383E07A
S11309D08F93F1DC2DB73EB7275F3F4F0FB6F894E6
S11309E03EBF0FBE2DBF4AC08091DF029091E0024E
S11309F00A9714F5409108025091090220910602C9
S1130A00309107028091DF029091E0025F934F934F
S1130A103F932F939F938F938CE092E09F938F93B8
S1130A2083E08F93C8DC8DB79EB709960FB6F89410
S1130A309EBF0FBE8DBF22C0409108025091090293
S1130A4020910602309107028091DF029091E0022A
S1130A505F934F933F932F939F938F938DE092E0F7
S1130A609F938F9383E08F93A6DC2DB73EB7275FC8
S1130A703F4F0FB6F8943EBF0FBE2DBF8091CE02FC
S1130A80882309F4C1C064E08091CF020ADCBCC0B1
S1130A9086E192E09F938F9383E08F938CDC0F9099
S1130AA00F900F90EBCF8091DF029091E0020A97B4
S1130AB00CF428CF8091DF029091E0020A970CF4A5
S1130AC030CF45C04091080250910902209106029E
S1130AD0309107028091DF029091E0025F934F937F
S1130AE03F932F939F938F938FE192E09F938F93E4
S1130AF083E08F9360DC8DB79EB709960FB6F894A8
S1130B009EBF0FBE8DBFBACF40910802509109021B
S1130B1020910602309107028091DF029091E00259
S1130B205F934F933F932F939F938F938BE292E026
S1130B309F938F9383E08F933EDC2DB73EB7275F5F
S1130B403F4F0FB6F8943EBF0FBE2DBF97CF809195
S1130B50DF029091E0020A970CF4EBCE22C04091A0
S1130B6008025091090220910602309107028091F7
S1130B70DF029091E0025F934F933F932F939F93F3
S1130B808F9386E392E09F938F9383E08F9313DC9C
S1130B908DB79EB709960FB6F8949EBF0FBE8DBF52
S1130BA06DCF80910602909107020A970CF4C9CE8A
S1130BB023C040910802509109022091060230910D
S1130BC007028091DF029091E0025F934F933F937D
S1130BD02F939F938F9380E292E09F938F9383E070
S1130BE08F93E9DB2DB73EB7275F3F4F0FB6F894DD
S1130BF03EBF0FBE2DBF42CF8091060290910702E7
S1130C000A970CF0C8CEA5CEDF91CF911F9108951D
S1130C102091D1023091D202E3EDF2E0D901AA0F82
S1130C20BB1FAE0FBF1F8D939C932F5F3F4F30931D
S1130C30D2022093D10280819181880F991F9C0157
S1130C40220F331F220F331F820F931F2091D502CF
S1130C503091D602820F931F9093E0028093DF02BB
S1130C609093E0028093DF028091DF029091E00292
S1130C70992334F08091DF029091E002489754F078
S1130C801092D2021092D1028FEF9FEF9093D00274
S1130C908093CF02E7EDF2E080819181880F991F64
S1130CA09C01220F331F220F331F820F931F2091A9
S1130CB0D9023091DA02820F931F90930702809336
S1130CC006028091060290910702CC9734F4809139
S1130CD0060290910702992334F482E090E0909305
S1130CE0D2028093D102EBEDF2E080819181880FF2
S1130CF0991F9C01220F331F220F331F820F931F52
S1130D002091DD023091DE02820F931F909309023D
S1130D10809308028091080290910902CC9734F4E0
S1130D20809108029091090299233CF484E090E0B8
S1130D309093D2028093D10211C08091D1029091FC
S1130D40D2028230910539F483E090E09093D0028E
S1130D508093CF0208958430910539F486E090E0C1
S1130D609093D0028093CF0208952091CF023091C6
S1130D70D0022F5F3F4F3093D0022093CF020697CB
S1130D8041F41092D2021092D1021092D002109229
S1130D90CF0208951F920F920FB60F9211248F93D2
S1130DA0109225011092240181E08093C5028F9155
S1130DB00F900FBE0F901F9018951F920F920FB6B1
S1130DC00F9211248F93109295001092940081E059
S1130DD08093B4028F910F900FBE0F901F901895BF
S1130DE0CF938091060184FD0DC18091C3028111CE
S1130DF009C10BC141E050E069E070E08DEA92E086
S1130E00B0D307C040E050E069E070E08DEA92E0C2
S1130E10A8D381E08093C3027F9920C18091CA0244
S1130E2081111CC10BC181E08093CB0262E370E0AD
S1130E308EEA92E033D481E08093CA0202C0109219
S1130E40CA028091060180FD1FC18091C9028111EF
S1130E501BC107C11092C9027D992BC18091C802A0
S1130E60811127C116C18CEA92E089D98CEA92E0FB
S1130E708BD98CE390E09093020280930102C1E04D
S1130E80C093000268EE73E080EB92E0BED4C0939E
S1130E90CC02C093CD0262E370E08EEA92E0FED30E
S1130EA0C093CB021092CE0268EE73E082EB92E024
S1130EB0ACD441E050E066E070E08DEA92E051D3BA
S1130EC041E050E06CE070E08DEA92E04AD341E00A
S1130ED050E06BE070E08DEA92E043D381E08093D0
S1130EE0C80202C01092C8028091CD02811135C09F
S1130EF08091CC02882389F18EEA92E0D9D31092B2
S1130F00CC0282EB92E031D440E050E066E070E045
S1130F108DEA92E026D340E050E06CE070E08DEA88
S1130F2092E01FD340E050E06BE070E08DEA92E085
S1130F3018D38CE390E0909302028093010281E045
S1130F408093000280EB92E010D41092CB028CEAE2
S1130F5092E01CD98CEA92E01ED97E99EBC0809174
S1130F60C7028111E7C0A8C01092C7028091060190
S1130F7081FDF7C08091C6028111F3C0DEC01092DA
S1130F80C202C1E0C093C102C093CC02C093CD029F
S1130F9062E370E08EEA92E081D3C093CB021092B8
S1130FA0CE0268EE73E082EB92E02FD441E050E091
S1130FB066E070E08DEA92E0D4D241E050E06CE06B
S1130FC070E08DEA92E0CDD241E050E06BE070E059
S1130FD08DEA92E0C6D28CEA92E0D1D88CEA92E013
S1130FE0D3D88CE390E09093020280930102C093E3
S1130FF0000268EE73E080EB92E007D4B6C0109272
S1131000C602B3C01092C30207CF9091C40281E01C
S113101089278093C4021F928F9381E492E09F9367
S11310208F9384E08F93C7D90F900F900F900F90F8
S11310300F908091C4028111DDCEE4CE8BE492E066
S11310409F938F9384E08F93B6D90F900F900F9056
S113105080910502882309F4EECEE5CE7F9BF1CE84
S1131060EECE87E592E09F938F9384E08F93A3D98C
S11310701092CB028EEA92E01BD381E08093C902E6
S11310800F900F900F90E8CE8091060180FDE2CE84
S1131090E3CE82E692E09F938F9384E08F938BD983
S11310A00F900F900F9080910502882309F416CFBA
S11310B0DACE7D9917CF18CF82E792E09F938F9372
S11310C084E08F9378D91092CC021092CB028EEAEE
S11310D092E0EED282EB92E048D3C1E0C093C70223
S11310E040E050E066E070E08DEA92E03AD240E001
S11310F050E06CE070E08DEA92E033D240E050E0E2
S11311006BE070E08DEA92E02CD28CEA92E03ED85B
S11311108CEA92E040D88CE390E0909302028093B2
S11311200102C093000280EB92E01FD30F900F9056
S11311300F901CCF7E9918CF19CF81E892E09F932E
S11311408F9384E08F9337D981E08093C602809394
S1131150C2020F900F900F9080910502882329F00E
S11311600ECF8091060181FF4ACFCF9108958091DF
S1131170C502882309F449C01092C502809108026F
S1131180909109020197909309028093080280913B
S11311900802909109029923C4F580910602909166
S11311A00702019790930702809306028BE390E075
S11311B0909309028093080280910602909107029D
S11311C099231CF58091DF029091E002019790939E
S11311D0E0028093DF028BE390E090930702809318
S11311E006028091DF029091E002992374F4109238
S11311F0090210920802109207021092060210923D
S1131200E0021092DF021092CD020895CF92DF9295
S1131210EF92FF920F931F93CF93DF936B017C01A7
S11312206091030270910402882777FD8095982FBE
S113123022D4A70196011BD320E030E040E05FE315
S1131240CED49B01AC0160E070E080E291E40FD366
S1131250C62ED72EE82EF92E062F172FD82FC92FDA
S113126020E030E040E251E4B6D4181664F020E007
S113127030E040E050E46C2D7D2D8E2D9F2D5CD30D
S1131280882334F009C000E010E0D0E2C1E404C0D7
S113129000E010E0D0E0C0E4602F712F8D2F9C2F70
S11312A0DF91CF911F910F91FF90EF90DF90CF903E
S11312B008957894AEDA8091BA028F938091B9023E
S11312C08F938091B8028F938091B7028F9380910E
S11312D0BE028F938091BD028F938091BC028F9345
S11312E08091BB028F9387E892E09F938F9381E074
S11312F08F9361D88091C0028F938091BF028F93A6
S113130087E992E09F938F9382E08F9354D886E18C
S113131092E09F938F9383E08F934DD88DB79EB7C0
S113132043960FB6F8949EBF0FBE8DBF0CE310E03A
S1131330CEE9D2E06894FF24F2F852DD80E053DA7B
S11313406C0181E050DABC01882777FD8095982FE5
S113135092D320E030E040E85AE341D420E030E08A
S113136040EA50E43CD420E030E048EC52E437D486
S11313706093BB027093BC028093BD029093BE0243
S11313808091CC02811104C08091CB028823A1F00A
S1131390B601882777FD8095982F6DD320E030E043
S11313A040E85AE31CD420E030E048EC52E417D47F
S11313B02FD38EEA92E07AD183E015DABC01882734
S11313C077FD8095982F57D320E030E040E85AE32A
S11313D006D420E030E040EA50E401D420E030E0DC
S11313E048EC52E4FCD36093B7027093B802809344
S11313F0B9029093BA028091CC02882311F1B7DE2E
S11314008091B4028823E9F01092B4028091010221
S113141090910202019790930202809301028091BD
S1131420010290910202181619060CF464C080910E
S11314300002811134C05FC080910002882309F446
S113144063C006DA8091C402882309F476CF98D960
S1131450282F392F8091B5029091B60228173907A9
S113146009F46BCF3093B6022093B50233230CF406
S113147064CF2A3031055CF02D30310509F05DCFA1
S11314809091CE0281E089278093CE0256CF80913D
S1131490CE02882309F451CFC901BADB4ECF609143
S11314A0BB027091BC028091BD029091BE02AEDE7F
S11314B0AFD2709302026093010280910102909175
S11314C002029F938F93DF93CF93FF920E94DB01DD
S11314D0109200028CEA92E00E94CB0040E050E0BF
S11314E06CE070E08DEA92E03CD00F900F900F908A
S11314F00F900F90A6CF80910102909102021816CE
S113150019060CF49ECF98CF1093020200930102A7
S113151081E0809300028CEA92E00E94C40041E0E2
S113152050E06CE070E08DEA92E01BD08ACF10921C
S1131530AF021092AE020895EAE0F1E08081846087
S113154080838081806180839A9A989A8081806464
S113155080830B9A099A0D9A389A3C9A0F9A3E9A6C
S113156008956630710509F46AC0A4F46230710507
S113157009F44BC044F46115710599F161307105AA
S113158009F086C020C06430710509F44AC00CF02B
S113159042C035C06930710509F463C04CF467304A
S11315A0710509F452C06830710509F071C053C067
S11315B06B30710509F461C00CF459C06C307105CD
S11315C009F066C060C0452B31F0EBE0F1E08081AA
S11315D0846080830895EBE0F1E080818B7F8083D9
S11315E00895452B31F0EBE0F1E080818061808348
S11315F00895EBE0F1E080818F7E80830895452B90
S113160011F0A29A0895A2980895452B11F0A29A78
S11316100895A2980895452B11F0A09A0895A098D2
S11316200895452B31F0EBE0F1E080818064808304
S11316300895EBE0F1E080818F7B80830895452B52
S113164011F0139A089513980895452B11F0159AE3
S1131650089515980895452B11F0119A089511983D
S11316600895452B11F0409A089540980895452B0C
S113167011F0449A089544980895452B11F0179A4F
S1131680089517980895452B11F0469A08954698A1
S1131690089517D0269A259A2D9808952E9AE7EA48
S11316A0F1E63197F1F700C0000054C028C0089556
S11316B053D087EA91E60197F1F700C000002E9815
S11316C00895E0E8F0E020812068208320812260F2
S11316D02083E1E8F0E020812861208320812260DA
S11316E0208320ED37E0FC01318320833093870091
S11316F02093860010928900109288000895CF925A
S1131700DF92EF92FF92CF93DF93EC01882777FD6E
S11317108095982FB0D120E030E048EC52E410D10D
S11317206B017C0168817981882777FD8095982FEA
S1131730A2D19B01AC01C701B60151D26ED1709305
S1131740890060938800DF91CF91FF90EF90DF9044
S1131750CF900895D4CF08951092890010928800F4
S11317600895FC01718360830895FC018081918157
S11317708330910581F01CF40197F1F406C08430A4
S1131780910579F00597C1F412C0E1E8F0E0808199
S1131790887F80830895E1E9F0E08081887F8083F9
S11317A00895E1EAF0E08081887F80830895E1E292
S11317B0F1E08081887F80830895FC01808191819C
S11317C08330910581F01CF40197F1F406C0843054
S11317D0910579F00597C1F412C0EFE6F0E080813D
S11317E0826080830895E1E7F0E0808182608083F5
S11317F00895E2E7F0E08081826080830895E3E762
S1131800F0E08081826080830895FC018081918171
S113181085309105A9F4882777FD8095982F2BD1E1
S113182020E030E04AE751E4DAD1F2D070932901A4
S113183060932801E1E2F1E080818560808308956E
S11318400397A1F4882777FD8095982F14D120E081
S113185030E04AE751E4C3D1DBD070939900609340
S11318609800E1E9F0E08081856080830895505814
S1131870BB27AA270ED075C166D130F06BD120F0FA
S113188031F49F3F11F41EF45BC10EF4E095E7FBC5
S113189051C1E92F77D180F3BA1762077307840720
S11318A0950718F071F49EF58FC10EF4E0950B2E98
S11318B0BA2FA02D0B01B90190010C01CA01A0019E
S11318C01124FF27591B99F0593F50F4503E68F1F9
S11318D01A16F040A22F232F342F4427585FF3CF3A
S11318E0469537952795A795F0405395C9F77EF40B
S11318F01F16BA0B620B730B840BBAF09150A1F054
S1131900FF0FBB1F661F771F881FC2F70EC0BA0FD9
S1131910621F731F841F48F4879577956795B79561
S1131920F7959E3F08F0B3CF9395880F08F0992759
S1131930EE0F979587950895D9D008F481E008951E
S11319400CD00FC107D140F0FED030F021F45F3F3E
S113195019F0F0C0511139C1F3C014D198F399238F
S1131960C9F35523B1F3951B550BBB27AA2762175F
S11319707307840738F09F5F5F4F220F331F441FA4
S1131980AA1FA9F333D00E2E3AF0E0E830D09150DC
S11319905040E695001CCAF729D0FE2F27D0660FC9
S11319A0771F881FBB1F261737074807AB07B0E808
S11319B009F0BB0B802DBF01FF2793585F4F2AF01E
S11319C09E3F510568F0B6C000C15F3FECF3983EFE
S11319D0DCF3869577956795B795F7959F5FC9F77B
S11319E0880F911D9695879597F90895E1E0660F04
S11319F0771F881FBB1F621773078407BA0720F07D
S1131A00621B730B840BBA0BEE1F88F7E0950895E5
S1131A1004D06894B111D9C00895BCD088F09F5700
S1131A2090F0B92F9927B751A0F0D1F0660F771F26
S1131A30881F991F1AF0BA95C9F712C0B13081F006
S1131A40C3D0B1E00895C0C0672F782F8827B85F4E
S1131A5039F0B93FCCF3869577956795B395D9F767
S1131A603EF490958095709561957F4F8F4F9F4F71
S1131A700895E89409C097FB3EF49095809570957D
S1131A8061957F4F8F4F9F4F9923A9F0F92F96E9C6
S1131A90BB279395F695879577956795B795F1113B
S1131AA0F8CFFAF4BB0F11F460FF1BC06F5F7F4FD8
S1131AB08F4F9F4F16C0882311F096E911C07723EA
S1131AC021F09EE8872F762F05C0662371F096E8F3
S1131AD0862F70E060E02AF09A95660F771F881FC2
S1131AE0DAF7880F9695879597F90895990F000866
S1131AF0550FAA0BE0E8FEEF16161706E807F907DC
S1131B00C0F012161306E407F50798F0621B730B76
S1131B10840B950B39F40A2661F0232B242B252BF7
S1131B2021F408950A2609F4A140A6958FEF811D9A
S1131B30811D089597F99F6780E870E060E008953B
S1131B409FEF80EC089500240A94161617061806D1
S1131B500906089500240A941216130614060506AD
S1131B600895092E0394000C11F4882352F0BB0F3E
S1131B7040F4BF2B11F460FF04C06F5F7F4F8F4FA1
S1131B809F4F089557FD9058440F551F59F05F3FDC
S1131B9071F04795880F97FB991F61F09F3F79F08B
S1131BA087950895121613061406551FF2CF46950D
S1131BB0F1DF08C0161617061806991FF1CF86958F
S1131BC07105610508940895E894BB276627772773
S1131BD0CB0197F908958ADF08F48FEF08950BD0AD
S1131BE0C0CFB1DF28F0B6DF18F0952309F0A2CFFB
S1131BF0A7CF1124EACFC6DFA0F3959FD1F3950FA9
S1131C0050E0551F629FF001729FBB27F00DB11D7C
S1131C10639FAA27F00DB11DAA1F649F6627B00D0C
S1131C20A11D661F829F2227B00DA11D621F739FF5
S1131C30B00DA11D621F839FA00D611D221F749F03
S1131C403327A00D611D231F849F600D211D822F4A
S1131C50762F6A2F11249F5750408AF0E1F0882391
S1131C604AF0EE0FFF1FBB1F661F771F881F91509E
S1131C705040A9F79E3F510570F05CCFA6CF5F3F5F
S1131C80ECF3983EDCF3869577956795B795F795D1
S1131C90E7959F5FC1F7FE2B880F911D9695879559
S1131CA097F90895AA1BBB1B51E107C0AA1FBB1FCC
S1131CB0A617B70710F0A61BB70B881F991F5A95D4
S1131CC0A9F780959095BC01CD0108950790F691F0
S1131CD0E02D1994FB019F01E8944230BCF0453299
S1131CE0ACF44A3029F497FB1EF4909581959F4FEC
S1131CF0642F7727D7DF805D8A330CF0895D819369
S1131D00CB010097A9F716F45DE251931082C90143
S1131D1000C0DC01FC01672F71917723E1F7329752
S1131D2004C07C916D9370836291AE17BF07C8F3B2
S1091D300895F894FFCFB2
S1131D36013C0025000103001E000A003025643A18
S1131D4625643A25640030303A30303A3030003079
S1131D5625643A3025643A302564003025643A30E7
S1131D6625643A2564003025643A25643A302564AE
S1131D76004B6579706164202562005354415254C6
S1131D862050484F544F0053544F502050484F54FE
S1131D964F00535441525420494E43554241544FE7
S1131DA6520053544F5020494E43554241544F52CA
S1131DB60052455345540054413A25664320202099
S1131DC654533A2566430052483A256425004F6623
S10F1DD6662074696D653A2025640000E5
S9030000FC
