:1000000072C00000A1C000009FC000009DC00000A1
:100010009BC0000099C0000097C0000095C0000080
:1000200093C0000091C000008FC000008DC0000090
:100030008BC0000089C0000087C0000085C00000A0
:1000400083C0000081C000007FC000007DC00000B0
:100050007BC0000079C0000077C0000075C00000C0
:1000600073C0000071C000006FC000006DC00000D0
:100070006BC0000069C0000067C0000065C00000E0
:100080007DC6000061C000005FC000005DC00000D0
:100090005BC0000059C0000057C0000055C0000000
:1000A00053C0000051C000004FC000004DC0000010
:1000B0004BC0000049C0000047C000004CC6000013
:1000C00043C0000041C000003FC000003DC0000030
:1000D0003BC0000039C0000037C0000035C0000040
:1000E00033C00000D40911241FBECFEFD1E2DEBF20
:1000F000CDBF00E00CBF12E0A0E0B2E0E8E5FBE11C
:1001000000E00BBF02C007900D92A23AB107D9F7E9
:1001100022E0A2EAB2E001C01D92A73DB207E1F7DA
:1001200010E0C6EED0E000E006C022970109FE0113
:100130000BBF0E94770DC43ED10780E00807A9F7E6
:100140000E94C1080C94AA0D5BCF25B144B181E097
:1001500090E0BC0102C0660F771F2A95E2F79B0171
:10016000242B24B935B124B102C0880F991F3A95C8
:10017000E2F7822B84B984B1806984B908952F9AFB
:1001800085B1806985B908952C9A08952F9885B115
:100190008F7685B908952C98089595ED9A95F1F785
:1001A0000000882314F4A59A01C0A59886FF02C018
:1001B000739A01C0739885FF06C0E2E0F1E0908178
:1001C0009860908305C0E2E0F1E09081977F908392
:1001D00084FF06C0E2E0F1E090819061908305C069
:1001E000E2E0F1E090819F7E9083E2E0F1E0908197
:1001F0009062908390819F7D908383FF02C0A59A37
:1002000001C0A59882FF02C0739A01C0739881FF54
:1002100006C0E2E0F1E090819860908305C0E2E0E2
:10022000F1E09081977F908380FF06C0E2E0F1E0EB
:1002300080818061808305C0E2E0F1E080818F7E73
:100240008083E2E0F1E080818062808380818F7D25
:1002500080830895E2E0F1E080818F7B808381E0FC
:100260009CDF8FE39FE10197F1F700C00000089544
:10027000CF93DF93EC01E2E0F1E080818064808342
:100280008881882329F0219688DF89918111FCCF0C
:10029000DF91CF910895E2E0F1E090819064908346
:1002A0007CCFE2E0F1E090819F7B9083611102C0FE
:1002B000805873CF613011F480546FCF623011F4E5
:1002C0008C566BCF8C5269CFE1E0F1E08081806485
:1002D00080838081806280839D9A6B9A8081886010
:1002E0008083808180618083E2E0F1E080818F7B88
:1002F000808380818F7D80838FE59AEE0197F1F76F
:1003000000C000008081806180838081886080835C
:100310007398A59880818062808380818F7D80839F
:100320008FE19EE40197F1F700C0000080818062B8
:10033000808380818F7D80838FE193E00197F1F747
:1003400000C0000080818062808380818F7D8083F7
:100350008FE193E00197F1F700C0000080818F7E6C
:1003600080838081886080837398A5988081806273
:10037000808380818F7D808388E20FDF8EE00DDFB8
:1003800069DF86E00ACFCF93DF9300D000D0CDB7EE
:10039000DEB7AB01BE016F5F7F4F0E947B0DCE01C8
:1003A000019666DF26960FB6F894DEBF0FBECDBF6E
:1003B000DF91CF9108954F925F926F927F92AF92AB
:1003C000BF92CF92DF92EF92FF920F931F93CF9342
:1003D000DF93CDB7DEB78A89EB88FC88813021F4C2
:1003E00060E080E05EDF11C0823021F461E080E0F7
:1003F00058DF0BC0833021F462E080E052DF05C09B
:10040000843019F463E080E04CDF6E0185E1C80EB2
:10041000D11CF7018081882309F4B2C0853209F02C
:1004200098C087010F5F1F4FF7018181863609F45D
:1004300049C030F4823661F0843609F086C020C0AD
:10044000833751F1883781F08F3609F07EC071C053
:100450007601F2E0EF0EF11C62E070E0F6018081BF
:10046000918191DF670184C07601F2E0EF0EF11C0B
:1004700060E170E0F6018081918185DF670178C0DD
:100480007601F2E0EF0EF11C6AE070E0F601808187
:10049000918179DF67016CC0F60182E0C80ED11C42
:1004A0000190F081E02D8081882309F461C07F01F3
:1004B0009FEFE91AF90AEFDEF70181917F018111BF
:1004C000FACF56C05601F4E0AF0EB11CF6014080E1
:1004D000518062807380C301B2010E94410C6B01A4
:1004E0007C01882777FD8095982F0E94740C9B01D2
:1004F000AC01C301B2010E94740B20E030E048EC73
:1005000052E40E94000D0E94410C662E772E6AE094
:1005100070E0C60138DF8EE2BEDE862D972D99236E
:100520001CF49195819591096AE070E02CDF6501DA
:100530001FC07601F2E0EF0EF11C68E070E0F601FA
:100540008081918120DF670113C085E2A4DE8701ED
:100550000FC0893021F480E29EDE870109C08A3015
:1005600029F461E080E09DDE870102C094DE87010E
:100570007801FFEFEF1AFF0AF801818181114ECF58
:10058000DF91CF911F910F91FF90EF90DF90CF906F
:10059000BF90AF907F906F905F904F90089587B11C
:1005A000826887B987B1886287B981B18A7A81B94F
:1005B00088B18A6A88B982B1856582B908954198FF
:1005C000439A459A479A8FE59AEE0197F1F700C052
:1005D0000000069961C0319B30C05EC0319B30C0C5
:1005E0005DC0319B30C05CC0319B30C05BC0339B71
:1005F00030C068C0339B30C067C0339B30C066C01A
:10060000339B30C065C0359B30C072C0359B30C055
:1006100071C0359B30C070C0359B30C06FC0379BF8
:1006200030C07CC0379B30C07BC0379B30C07AC0A5
:1006300037997AC020E130E02CC021E030E029C0B9
:1006400024E030E026C027E030E023C02CE030E09A
:1006500020C022E030E01DC025E030E01AC028E0D4
:1006600030E017C020E030E014C023E030E011C0DB
:1006700026E030E00EC029E030E00BC02BE030E097
:1006800008C02DE030E005C02EE030E002C02FE0D1
:1006900030E0822F932F0895049BA0CF029BA1CF1F
:1006A000009BA2CF419A8FE19EE40197F1F700C031
:1006B000000043988FE59AEE0197F1F700C0000023
:1006C000069B95CF049B96CF029B97CF009B98CF1C
:1006D000439A8FE19EE40197F1F700C0000045982E
:1006E0008FE59AEE0197F1F700C00000069B8BCFD3
:1006F000049B8CCF029B8DCF009B8ECF459A8FE1C0
:100700009EE40197F1F700C0000047988FE59AEE4C
:100710000197F1F700C00000069B81CF049B82CFB8
:10072000029B83CF009B84CF479A8FE19EE4019781
:10073000F1F700C000008AE090E0909309028093F6
:1007400008022AE030E0A5CF4198439845984798A1
:10075000069B0BC0049B0CC0029B0DC090B181E0B6
:100760008927282F217030E008C021E030E005C043
:1007700021E030E002C021E030E0822F932F089585
:10078000E3DF019751F420910802309109022A30E9
:10079000310519F0822F932F089511DF9C0190935A
:1007A000090280930802F6CFEAE7F0E080818068D2
:1007B0008083ACE7B0E08C9180648C938C91807ED8
:1007C0008C9380818660808380818160808380813A
:1007D00080648083808186FDFDCFEAE7F0E0808140
:1007E0008F7780830895ECE7F0E090818770987FA1
:1007F000982B9083EAE7F0E08081806C8083808191
:1008000086FDFDCF2091780030917900822F932FC3
:1008100008951F93CF93DF9360E083E042DD8091E2
:10082000B4028F938091B3028F938091B2028F9321
:100830008091B1028F93C6E9D2E0DF93CF9315E0A8
:100840001F93B9DD60E08DE02CDD8091B0028F93C5
:100850008091AF028F938091AE028F938091AD0211
:100860008F93DF93CF931F93A6DD61E083E019DDC3
:100870008091B6028F938091B5028F938DE992E0BB
:100880009F938F931F9397DD8091D5029091D6020D
:100890002DB73EB72D5E3F4F0FB6F8943EBF0FBE4B
:1008A0002DBF892B09F0E0C08091040290910502D0
:1008B000892B09F0D9C08091060290910702892BFB
:1008C00009F4C7C0D1C080910402909105020A9733
:1008D0000CF0D1C080910602909107020A970CF4A7
:1008E000D2C0C9C080910402909105020A970CF40D
:1008F000ECC00EC180910602909107020A970CF499
:100900000FC130C180910602909107020A970CF442
:1009100031C153C140910602509107022091040257
:10092000309105028091D5029091D6025F934F934A
:100930003F932F939F938F938AE292E09F938F939D
:1009400083E08F9338DD8DB79EB709960FB6F89484
:100950009EBF0FBE8DBF73C08091060290910702AB
:100960000A971CF54091060250910702209104025B
:10097000309105028091D5029091D6025F934F93FA
:100980003F932F939F938F9385E392E09F938F9351
:1009900083E08F9310DD2DB73EB7275F3F4F0FB633
:1009A000F8943EBF0FBE2DBF4AC08091D5029091F2
:1009B000D6020A9714F54091060250910702209141
:1009C0000402309105028091D5029091D6025F9386
:1009D0004F933F932F939F938F938AE092E09F933F
:1009E0008F9383E08F93E7DC8DB79EB709960FB6A0
:1009F000F8949EBF0FBE8DBF22C040910602509159
:100A0000070220910402309105028091D502909155
:100A1000D6025F934F933F932F939F938F938BE0D7
:100A200092E09F938F9383E08F93C5DC2DB73EB701
:100A3000275F3F4F0FB6F8943EBF0FBE2DBF80918A
:100A4000C402882309F4C1C064E08091C50229DC96
:100A5000BCC084E192E09F938F9383E08F93ABDCE3
:100A60000F900F900F90EBCF8091D5029091D6020E
:100A70000A970CF428CF8091D5029091D6020A975C
:100A80000CF430CF45C040910602509107022091EE
:100A90000402309105028091D5029091D6025F93B5
:100AA0004F933F932F939F938F938DE192E09F936A
:100AB0008F9383E08F937FDC8DB79EB709960FB637
:100AC000F8949EBF0FBE8DBFBACF409106025091E1
:100AD000070220910402309105028091D502909185
:100AE000D6025F934F933F932F939F938F9389E207
:100AF00092E09F938F9383E08F935DDC2DB73EB799
:100B0000275F3F4F0FB6F8943EBF0FBE2DBF97CF64
:100B10008091D5029091D6020A970CF4EBCE22C0B8
:100B20004091060250910702209104023091050283
:100B30008091D5029091D6025F934F933F932F936C
:100B40009F938F9384E392E09F938F9383E08F939F
:100B500032DC8DB79EB709960FB6F8949EBF0FBED4
:100B60008DBF6DCF80910402909105020A970CF41D
:100B7000C9CE23C040910602509107022091040281
:100B8000309105028091D5029091D6025F934F93E8
:100B90003F932F939F938F938EE192E09F938F9338
:100BA00083E08F9308DC2DB73EB7275F3F4F0FB62A
:100BB000F8943EBF0FBE2DBF42CF809104029091AA
:100BC00005020A970CF0C8CEA5CEDF91CF911F91F8
:100BD00008952091C7023091C802E9ECF2E0D901F2
:100BE000AA0FBB1FAE0FBF1F8D939C932F5F3F4F6C
:100BF0003093C8022093C70280819181880F991F8A
:100C00009C01220F331F220F331F820F931F20914D
:100C1000CB023091CC02820F931F9093D602809327
:100C2000D5029093D6028093D5028091D5029091FF
:100C3000D602992334F08091D5029091D60248973C
:100C400054F01092C8021092C7028FEF9FEF90935A
:100C5000C6028093C502EDECF2E080819181880F9D
:100C6000991F9C01220F331F220F331F820F931FE6
:100C70002091CF023091D002820F931F90930502F2
:100C8000809304028091040290910502CC9734F481
:100C90008091040290910502992334F482E090E05F
:100CA0009093C8028093C702E1EDF2E080819181C8
:100CB000880F991F9C01220F331F220F331F820FB1
:100CC000931F2091D3023091D402820F931F9093EF
:100CD0000702809306028091060290910702CC974A
:100CE00034F4809106029091070299233CF484E049
:100CF00090E09093C8028093C70211C08091C70210
:100D00009091C8028230910539F483E090E090938D
:100D1000C6028093C50208958430910539F486E0B7
:100D200090E09093C6028093C50208952091C50279
:100D30003091C6022F5F3F4F3093C6022093C50209
:100D4000069741F41092C8021092C7021092C60290
:100D50001092C50208951F920F920FB60F921124A0
:100D60008F93109225011092240181E08093BB02A1
:100D70008F910F900FBE0F901F9018951F920F929A
:100D80000FB60F9211248F93109295001092940039
:100D900081E08093AA028F910F900FBE0F901F9059
:100DA0001895CF938091060184FDB9C08091B90256
:100DB0008111B5C0B7C041E050E069E070E083EA5E
:100DC00092E00CD307C040E050E069E070E083EAB5
:100DD00092E004D37F99CBC08091C0028111C7C03B
:100DE000B6C081E08093C10262E370E084EA92E0E1
:100DF00092D381E08093C00202C01092C002809121
:100E0000060180FDCAC08091BF028111C6C0B2C078
:100E10001092BF027D990CC18091BE02811108C160
:100E2000C1C01092BE028091C302811133C0809173
:100E3000C202882379F184EA92E077D31092C20249
:100E400088EA92E0CFD340E050E066E070E083EAC9
:100E500092E0C4D240E050E06CE070E083EA92E0BF
:100E6000BDD240E050E06BE070E083EA92E0B6D2A1
:100E70008CE390E0909302028093010281E08093E2
:100E8000000286EA92E0AED382EA92E07FD982EA5B
:100E900092E081D97E990BC18091BD02811107C179
:100EA000CAC01092BD028091060181FD03C18091EC
:100EB000BC028111FFC003C180910302882309F4A1
:100EC0000FC11092B80281E08093B7028093C202F2
:100ED0008093C30262E370E084EA92E01CD3109234
:100EE000C40268EE73E088EA92E0CCD341E050E0BF
:100EF00066E070E083EA92E071D241E050E06CE09D
:100F000070E083EA92E06AD241E050E06BE070E08A
:100F100083EA92E063D2E4C01092BC02E1C0109276
:100F2000B90258CFC1E0C093B9028FE392E09F931A
:100F30008F9384E08F933FDA8091BA02C827C093E1
:100F4000BA020F900F900F90C11135CF3CCF8EE4B5
:100F500092E09F938F9384E08F932DDA0F900F9000
:100F60000F9080910302882309F443CF3ACF7F9BEF
:100F700046CF43CF8AE592E09F938F9384E08F938F
:100F80001ADA1092C10284EA92E0CFD281E0809313
:100F9000BF020F900F900F903DCF8091060180FD12
:100FA00037CF38CF85E692E09F938F9384E08F937D
:100FB00002DA82EA92E0E3D882EA92E0E5D88CE3B2
:100FC00090E09093020280930102C1E0C09300027E
:100FD00068EE73E086EA92E055D3C093C202C093F4
:100FE000C30262E370E084EA92E095D21092C402F8
:100FF00068EE73E088EA92E045D341E050E066E0B5
:1010000070E083EA92E0EAD141E050E06CE070E009
:1010100083EA92E0E3D141E050E06BE070E083EAE4
:1010200092E0DCD1C093BE020F900F900F90FBCEE8
:101030007D99F7CEF8CE85E792E09F938F9384E079
:101040008F93B9D91092C20284EA92E06ED288EAF4
:1010500092E0C8D2C1E0C093BD0240E050E066E03B
:1010600070E083EA92E0BAD140E050E06CE070E0DA
:1010700083EA92E0B3D140E050E06BE070E083EAB5
:1010800092E0ACD182EA92E081D882EA92E083D801
:101090008CE390E09093020280930102C0930002DF
:1010A00086EA92E09FD20F900F900F90FCCE7E992F
:1010B000F8CEF9CE8091060181FF2ECF11C084E8D1
:1010C00092E09F938F9384E08F9375D981E0809312
:1010D000BC020F900F900F908091B8028111ECCE5E
:1010E000CF9108958091BB02882309F449C01092E2
:1010F000BB0280910602909107020197909307022C
:101100008093060280910602909107029923C4F50C
:1011100080910402909105020197909305028093BB
:1011200004028BE390E09093070280930602809183
:1011300004029091050299231CF58091D5029091AB
:10114000D60201979093D6028093D5028BE390E06C
:1011500090930502809304028091D5029091D6026B
:10116000992374F41092070210920602109205025D
:10117000109204021092D6021092D5021092C3026D
:101180000895789411DB0BDA9FD864D883EA92E053
:1011900010D160EA7FE084EA92E0B8D182EA92E07E
:1011A0000E94A50065E070E088EA92E017D288EA24
:1011B00092E040D263E070E086EA92E00FD286EAE5
:1011C00092E038D28091B0028F938091AF028F93DA
:1011D0008091AE028F938091AD028F938091B40283
:1011E0008F938091B3028F938091B2028F938091FD
:1011F000B1028F938AE892E09F938F9381E08F935F
:10120000DAD88091B6028F938091B5028F938AE9E4
:1012100092E09F938F9382E08F93CDD884E192E008
:101220009F938F9383E08F93C6D88DB79EB74396D5
:101230000FB6F8949EBF0FBE8DBF0CE310E0CEE159
:10124000D0E0AFDD81E0CFDABC01882777FD809563
:10125000982F4AD320E030E040E85AE3D1D320E091
:1012600030E048EC52E4CCD3262F372F462F572FAF
:10127000682F792F4093B1025093B2026093B3026A
:101280007093B402622F732FFCD284EA92E04BD1A8
:1012900082E0A9DABC01882777FD8095982F24D3B6
:1012A00020E030E040E85AE3ABD320E030E048EC07
:1012B00052E4A6D36093AD027093AE028093AF0266
:1012C0009093B0028091C202882309F10BDF8091D4
:1012D000AA028823E1F01092AA0280910102909163
:1012E0000202019790930202809301028091010211
:1012F00090910202892B09F043C080910002811174
:1013000034C03EC080910002882309F441C081DAD4
:101310008091BA02882309F494CF32DA282F392F2A
:101320008091AB029091AC022817390709F489CF5C
:101330003093AC022093AB0233230CF482CF2A30DB
:1013400031055CF02D30310509F07BCF9091C4025E
:1013500081E089278093C40274CF8091C4028823DE
:1013600009F46FCFC90135DC6CCFD0930202C09372
:1013700001021092000282EA92E00E94CB00C7CFE5
:101380008091010290910202892B09F4BBCFBFCF5B
:10139000109302020093010281E08093000282EA2E
:1013A00092E00E94C400B3CF1092A5021092A40252
:1013B0000895EAE0F1E0808184608083808180612B
:1013C00080839A9A989A8081806480830B9A099A84
:1013D0000D9A389A3C9A0F9A3E9A08956630710594
:1013E00009F46AC0A4F46230710509F44BC044F4F6
:1013F0006115710599F16130710509F086C020C051
:101400006430710509F44AC00CF042C035C069303F
:10141000710509F463C04CF46730710509F452C0DA
:101420006830710509F071C053C06B30710509F463
:1014300061C00CF459C06C30710509F066C060C021
:10144000452B31F0EBE0F1E08081846080830895EA
:10145000EBE0F1E080818B7F80830895452B31F0B4
:10146000EBE0F1E08081806180830895EBE0F1E0C2
:1014700080818F7E80830895452B11F0A29A089574
:10148000A2980895452B11F0A29A0895A298089564
:10149000452B11F0A09A0895A0980895452B31F09E
:1014A000EBE0F1E08081806480830895EBE0F1E07F
:1014B00080818F7B80830895452B11F0139A0895C6
:1014C00013980895452B11F0159A089515980895CD
:1014D000452B11F0119A089511980895452B11F09C
:1014E000409A089540980895452B11F0449A089524
:1014F00044980895452B11F0179A08951798089568
:10150000452B11F0469A08954698089517D0269ACB
:10151000259A2D9808952E9AE7EAF1E63197F1F78A
:1015200000C0000054C028C0089553D087EA91E657
:101530000197F1F700C000002E980895E0E8F0E070
:10154000208120682083208122602083E1E8F0E070
:1015500020812861208320812260208320ED37E0D4
:10156000FC01318320833093870020938600109202
:101570008900109288000895CF92DF92EF92FF9237
:10158000CF93DF93EC01882777FD8095982FACD11E
:1015900020E030E048EC52E40CD16B017C01688122
:1015A0007981882777FD8095982F9ED19B01AC018A
:1015B000C701B60125D26AD1709389006093880073
:1015C000DF91CF91FF90EF90DF90CF900895D4CF2F
:1015D000089510928900109288000895FC0171838B
:1015E00060830895FC01808191818330910581F0B1
:1015F0001CF40197F1F406C08430910579F0059749
:10160000C1F412C0E1E8F0E08081887F8083089512
:10161000E1E9F0E08081887F80830895E1EAF0E0ED
:101620008081887F80830895E1E2F1E08081887F76
:1016300080830895FC01808191818330910581F040
:101640001CF40197F1F406C08430910579F00597F8
:10165000C1F412C0EFE6F0E08081826080830895DB
:10166000E1E7F0E08081826080830895E2E7F0E0C6
:101670008081826080830895E3E7F0E0808182606A
:1016800080830895FC018081918185309105A9F4C2
:10169000882777FD8095982F27D120E030E04AE712
:1016A00051E4AED1EED07093290160932801E1E2BC
:1016B000F1E080818360808308950397A1F48827F7
:1016C00077FD8095982F10D120E030E04AE751E473
:1016D00097D1D7D07093990060939800E1E9F0E03A
:1016E00080818360808308955058BB27AA270ED03D
:1016F0004DC13ED130F043D120F031F49F3F11F481
:101700001EF433C10EF4E095E7FB29C1E92F4FD158
:1017100080F3BA17620773078407950718F071F40E
:101720009EF567C10EF4E0950B2EBA2FA02D0B018C
:10173000B90190010C01CA01A0011124FF27591B16
:1017400099F0593F50F4503E68F11A16F040A22F1C
:10175000232F342F4427585FF3CF4695379527958D
:10176000A795F0405395C9F77EF41F16BA0B620B8C
:10177000730B840BBAF09150A1F0FF0FBB1F661FD3
:10178000771F881FC2F70EC0BA0F621F731F841F16
:1017900048F4879577956795B795F7959E3F08F03C
:1017A000B3CF9395880F08F09927EE0F97958795FB
:1017B00008950CD0EBC0E3D040F0DAD030F021F443
:1017C0005F3F19F0CCC0511115C1CFC0F0D098F3D4
:1017D0009923C9F35523B1F3951B550BBB27AA27B2
:1017E00062177307840738F09F5F5F4F220F331F24
:1017F000441FAA1FA9F333D00E2E3AF0E0E830D0F0
:1018000091505040E695001CCAF729D0FE2F27D0F2
:10181000660F771F881FBB1F261737074807AB07C0
:10182000B0E809F0BB0B802DBF01FF2793585F4F35
:101830002AF09E3F510568F092C0DCC05F3FECF398
:10184000983EDCF3869577956795B795F7959F5FFA
:10185000C9F7880F911D9695879597F90895E1E04E
:10186000660F771F881FBB1F621773078407BA07AD
:1018700020F0621B730B840BBA0BEE1F88F7E09508
:10188000089504D06894B111B5C0089598D088F037
:101890009F5790F0B92F9927B751A0F0D1F0660F5C
:1018A000771F881F991F1AF0BA95C9F712C0B13077
:1018B00081F09FD0B1E008959CC0672F782F8827D2
:1018C000B85F39F0B93FCCF3869577956795B395B6
:1018D000D9F73EF490958095709561957F4F8F4F25
:1018E0009F4F0895E89409C097FB3EF4909580952A
:1018F000709561957F4F8F4F9F4F9923A9F0F92FD6
:1019000096E9BB279395F695879577956795B79553
:10191000F111F8CFFAF4BB0F11F460FF1BC06F5F39
:101920007F4F8F4F9F4F16C0882311F096E911C04B
:10193000772321F09EE8872F762F05C0662371F06C
:1019400096E8862F70E060E02AF09A95660F771F80
:10195000881FDAF7880F9695879597F9089597F974
:101960009F6780E870E060E008959FEF80EC089545
:1019700000240A941616170618060906089500246E
:101980000A9412161306140605060895092E0394E8
:10199000000C11F4882352F0BB0F40F4BF2B11F45C
:1019A00060FF04C06F5F7F4F8F4F9F4F089557FDBB
:1019B0009058440F551F59F05F3F71F04795880FBD
:1019C00097FB991F61F09F3F79F087950895121654
:1019D00013061406551FF2CF4695F1DF08C0161600
:1019E00017061806991FF1CF8695710561050894B1
:1019F0000895E894BB2766277727CB0197F90895C8
:101A00000BD0C4CFB5DF28F0BADF18F0952309F06A
:101A1000A6CFABCF1124EECFCADFA0F3959FD1F3B1
:101A2000950F50E0551F629FF001729FBB27F00D8C
:101A3000B11D639FAA27F00DB11DAA1F649F6627E1
:101A4000B00DA11D661F829F2227B00DA11D621F30
:101A5000739FB00DA11D621F839FA00D611D221FEA
:101A6000749F3327A00D611D231F849F600D211DCE
:101A7000822F762F6A2F11249F5750408AF0E1F071
:101A800088234AF0EE0FFF1FBB1F661F771F881FBA
:101A900091505040A9F79E3F510570F060CFAACFFA
:101AA0005F3FECF3983EDCF3869577956795B795A5
:101AB000F795E7959F5FC1F7FE2B880F911D9695CF
:101AC000879597F90895AA1BBB1B51E107C0AA1F70
:101AD000BB1FA617B70710F0A61BB70B881F991FCF
:101AE0005A95A9F780959095BC01CD01089507906E
:101AF000F691E02D1994FB019F01E8944230BCF06F
:101B00004532ACF44A3029F497FB1EF49095819548
:101B10009F4F642F7727D7DF805D8A330CF0895D74
:101B20008193CB010097A9F716F45DE251931082DF
:101B3000C90100C0DC01FC01672F71917723E1F737
:101B4000329704C07C916D9370836291AE17BF078A
:081B5000C8F30895F894FFCFDB
:101B5800013C000103001E000A003025643A256498
:101B68003A25640030303A30303A3030003025645D
:101B78003A3025643A302564003025643A302564CB
:101B88003A2564003025643A25643A302564004BD0
:101B9800455950414420454E41424C454400535418
:101BA8004152542050484F544F0053544F502050E6
:101BB800484F544F00535441525420494E435542C4
:101BC80041544F520053544F5020494E43554241BF
:101BD800544F520052455345540054413A256643E8
:101BE80020202054533A2566430052483A2564255C
:021BF8000000EB
:00000001FF
